{
  "contractName": "BlockID",
  "abi": [
    {
      "constant": true,
      "inputs": [
        {
          "name": "",
          "type": "address"
        }
      ],
      "name": "personalId",
      "outputs": [
        {
          "name": "firstName",
          "type": "string"
        },
        {
          "name": "middleName",
          "type": "string"
        },
        {
          "name": "lastName",
          "type": "string"
        },
        {
          "name": "nationality",
          "type": "string"
        },
        {
          "name": "imgHash",
          "type": "string"
        },
        {
          "name": "dob",
          "type": "uint256"
        },
        {
          "name": "ethnicity",
          "type": "uint256"
        },
        {
          "name": "gender",
          "type": "bool"
        }
      ],
      "payable": false,
      "stateMutability": "view",
      "type": "function",
      "signature": "0x06f50665"
    },
    {
      "constant": true,
      "inputs": [
        {
          "name": "",
          "type": "address"
        },
        {
          "name": "",
          "type": "address"
        }
      ],
      "name": "idAllowance",
      "outputs": [
        {
          "name": "",
          "type": "bool"
        }
      ],
      "payable": false,
      "stateMutability": "view",
      "type": "function",
      "signature": "0x279292a7"
    },
    {
      "constant": true,
      "inputs": [
        {
          "name": "",
          "type": "address"
        }
      ],
      "name": "addressToName",
      "outputs": [
        {
          "name": "",
          "type": "bytes32"
        }
      ],
      "payable": false,
      "stateMutability": "view",
      "type": "function",
      "signature": "0xe2a04b62"
    },
    {
      "constant": true,
      "inputs": [
        {
          "name": "",
          "type": "bytes32"
        }
      ],
      "name": "nameRegistry",
      "outputs": [
        {
          "name": "",
          "type": "address"
        }
      ],
      "payable": false,
      "stateMutability": "view",
      "type": "function",
      "signature": "0xec1d2cf0"
    },
    {
      "anonymous": false,
      "inputs": [
        {
          "indexed": true,
          "name": "_from",
          "type": "address"
        },
        {
          "indexed": true,
          "name": "_to",
          "type": "address"
        }
      ],
      "name": "Allowed",
      "type": "event",
      "signature": "0xbb4e11496b5475aaef208dd35aed42ef617045213f264d285ca848ada6ad87ec"
    },
    {
      "anonymous": false,
      "inputs": [
        {
          "indexed": true,
          "name": "_address",
          "type": "address"
        }
      ],
      "name": "Registered",
      "type": "event",
      "signature": "0x2d3734a8e47ac8316e500ac231c90a6e1848ca2285f40d07eaa52005e4b3a0e9"
    },
    {
      "constant": false,
      "inputs": [
        {
          "name": "_userName",
          "type": "string"
        },
        {
          "name": "_firstName",
          "type": "string"
        },
        {
          "name": "_middleName",
          "type": "string"
        },
        {
          "name": "_lastName",
          "type": "string"
        },
        {
          "name": "_nationality",
          "type": "string"
        },
        {
          "name": "_imgHash",
          "type": "string"
        },
        {
          "name": "_dob",
          "type": "uint256"
        },
        {
          "name": "_ethnicity",
          "type": "uint256"
        },
        {
          "name": "_gender",
          "type": "bool"
        }
      ],
      "name": "createId",
      "outputs": [],
      "payable": false,
      "stateMutability": "nonpayable",
      "type": "function",
      "signature": "0x231c4d81"
    },
    {
      "constant": false,
      "inputs": [
        {
          "name": "_name",
          "type": "string"
        }
      ],
      "name": "registerName",
      "outputs": [
        {
          "name": "success",
          "type": "bool"
        }
      ],
      "payable": false,
      "stateMutability": "nonpayable",
      "type": "function",
      "signature": "0x0830602b"
    },
    {
      "constant": true,
      "inputs": [
        {
          "name": "_userName",
          "type": "string"
        }
      ],
      "name": "returnAddress",
      "outputs": [
        {
          "name": "",
          "type": "address"
        }
      ],
      "payable": false,
      "stateMutability": "view",
      "type": "function",
      "signature": "0x68b64d1f"
    },
    {
      "constant": false,
      "inputs": [
        {
          "name": "_userName",
          "type": "string"
        }
      ],
      "name": "setAllow",
      "outputs": [],
      "payable": false,
      "stateMutability": "nonpayable",
      "type": "function",
      "signature": "0xfe3137a9"
    },
    {
      "constant": true,
      "inputs": [
        {
          "name": "_idAddress",
          "type": "address"
        }
      ],
      "name": "requestId",
      "outputs": [],
      "payable": false,
      "stateMutability": "view",
      "type": "function",
      "signature": "0x03ee7a58"
    },
    {
      "constant": true,
      "inputs": [
        {
          "name": "_userName",
          "type": "string"
        }
      ],
      "name": "validId",
      "outputs": [
        {
          "name": "",
          "type": "bool"
        }
      ],
      "payable": false,
      "stateMutability": "view",
      "type": "function",
      "signature": "0xd3cded27"
    }
  ],
  "bytecode": "0x608060405234801561001057600080fd5b5061182e806100206000396000f3fe6080604052600436106100a4576000357c0100000000000000000000000000000000000000000000000000000000900463ffffffff16806303ee7a58146100a957806306f50665146100fa5780630830602b1461038d578063231c4d811461046d578063279292a71461084957806368b64d1f146108d2578063d3cded27146109da578063e2a04b6214610aba578063ec1d2cf014610b1f578063fe3137a914610b9a575b600080fd5b3480156100b557600080fd5b506100f8600480360360208110156100cc57600080fd5b81019080803573ffffffffffffffffffffffffffffffffffffffff169060200190929190505050610c62565b005b34801561010657600080fd5b506101496004803603602081101561011d57600080fd5b81019080803573ffffffffffffffffffffffffffffffffffffffff169060200190929190505050610cfa565b6040518080602001806020018060200180602001806020018981526020018881526020018715151515815260200186810386528e818151815260200191508051906020019080838360005b838110156101af578082015181840152602081019050610194565b50505050905090810190601f1680156101dc5780820380516001836020036101000a031916815260200191505b5086810385528d818151815260200191508051906020019080838360005b838110156102155780820151818401526020810190506101fa565b50505050905090810190601f1680156102425780820380516001836020036101000a031916815260200191505b5086810384528c818151815260200191508051906020019080838360005b8381101561027b578082015181840152602081019050610260565b50505050905090810190601f1680156102a85780820380516001836020036101000a031916815260200191505b5086810383528b818151815260200191508051906020019080838360005b838110156102e15780820151818401526020810190506102c6565b50505050905090810190601f16801561030e5780820380516001836020036101000a031916815260200191505b5086810382528a818151815260200191508051906020019080838360005b8381101561034757808201518184015260208101905061032c565b50505050905090810190601f1680156103745780820380516001836020036101000a031916815260200191505b509d505050505050505050505050505060405180910390f35b34801561039957600080fd5b50610453600480360360208110156103b057600080fd5b81019080803590602001906401000000008111156103cd57600080fd5b8201836020820111156103df57600080fd5b8035906020019184600183028401116401000000008311171561040157600080fd5b91908080601f016020809104026020016040519081016040528093929190818152602001838380828437600081840152601f19601f820116905080830192505050505050509192919290505050611047565b604051808215151515815260200191505060405180910390f35b34801561047957600080fd5b50610847600480360361012081101561049157600080fd5b81019080803590602001906401000000008111156104ae57600080fd5b8201836020820111156104c057600080fd5b803590602001918460018302840111640100000000831117156104e257600080fd5b91908080601f016020809104026020016040519081016040528093929190818152602001838380828437600081840152601f19601f8201169050808301925050505050505091929192908035906020019064010000000081111561054557600080fd5b82018360208201111561055757600080fd5b8035906020019184600183028401116401000000008311171561057957600080fd5b91908080601f016020809104026020016040519081016040528093929190818152602001838380828437600081840152601f19601f820116905080830192505050505050509192919290803590602001906401000000008111156105dc57600080fd5b8201836020820111156105ee57600080fd5b8035906020019184600183028401116401000000008311171561061057600080fd5b91908080601f016020809104026020016040519081016040528093929190818152602001838380828437600081840152601f19601f8201169050808301925050505050505091929192908035906020019064010000000081111561067357600080fd5b82018360208201111561068557600080fd5b803590602001918460018302840111640100000000831117156106a757600080fd5b91908080601f016020809104026020016040519081016040528093929190818152602001838380828437600081840152601f19601f8201169050808301925050505050505091929192908035906020019064010000000081111561070a57600080fd5b82018360208201111561071c57600080fd5b8035906020019184600183028401116401000000008311171561073e57600080fd5b91908080601f016020809104026020016040519081016040528093929190818152602001838380828437600081840152601f19601f820116905080830192505050505050509192919290803590602001906401000000008111156107a157600080fd5b8201836020820111156107b357600080fd5b803590602001918460018302840111640100000000831117156107d557600080fd5b91908080601f016020809104026020016040519081016040528093929190818152602001838380828437600081840152601f19601f82011690508083019250505050505050919291929080359060200190929190803590602001909291908035151590602001909291905050506111b4565b005b34801561085557600080fd5b506108b86004803603604081101561086c57600080fd5b81019080803573ffffffffffffffffffffffffffffffffffffffff169060200190929190803573ffffffffffffffffffffffffffffffffffffffff169060200190929190505050611366565b604051808215151515815260200191505060405180910390f35b3480156108de57600080fd5b50610998600480360360208110156108f557600080fd5b810190808035906020019064010000000081111561091257600080fd5b82018360208201111561092457600080fd5b8035906020019184600183028401116401000000008311171561094657600080fd5b91908080601f016020809104026020016040519081016040528093929190818152602001838380828437600081840152601f19601f820116905080830192505050505050509192919290505050611395565b604051808273ffffffffffffffffffffffffffffffffffffffff1673ffffffffffffffffffffffffffffffffffffffff16815260200191505060405180910390f35b3480156109e657600080fd5b50610aa0600480360360208110156109fd57600080fd5b8101908080359060200190640100000000811115610a1a57600080fd5b820183602082011115610a2c57600080fd5b80359060200191846001830284011164010000000083111715610a4e57600080fd5b91908080601f016020809104026020016040519081016040528093929190818152602001838380828437600081840152601f19601f8201169050808301925050505050505091929192905050506113ee565b604051808215151515815260200191505060405180910390f35b348015610ac657600080fd5b50610b0960048036036020811015610add57600080fd5b81019080803573ffffffffffffffffffffffffffffffffffffffff1690602001909291905050506114f6565b6040518082815260200191505060405180910390f35b348015610b2b57600080fd5b50610b5860048036036020811015610b4257600080fd5b810190808035906020019092919050505061150e565b604051808273ffffffffffffffffffffffffffffffffffffffff1673ffffffffffffffffffffffffffffffffffffffff16815260200191505060405180910390f35b348015610ba657600080fd5b50610c6060048036036020811015610bbd57600080fd5b8101908080359060200190640100000000811115610bda57600080fd5b820183602082011115610bec57600080fd5b80359060200191846001830284011164010000000083111715610c0e57600080fd5b91908080601f016020809104026020016040519081016040528093929190818152602001838380828437600081840152601f19601f820116905080830192505050505050509192919290505050611541565b005b600260008273ffffffffffffffffffffffffffffffffffffffff1673ffffffffffffffffffffffffffffffffffffffff16815260200190815260200160002060003373ffffffffffffffffffffffffffffffffffffffff1673ffffffffffffffffffffffffffffffffffffffff16815260200190815260200160002060009054906101000a900460ff161515610cf757600080fd5b50565b6001602052806000526040600020600091509050806000018054600181600116156101000203166002900480601f016020809104026020016040519081016040528092919081815260200182805460018160011615610100020316600290048015610da65780601f10610d7b57610100808354040283529160200191610da6565b820191906000526020600020905b815481529060010190602001808311610d8957829003601f168201915b505050505090806001018054600181600116156101000203166002900480601f016020809104026020016040519081016040528092919081815260200182805460018160011615610100020316600290048015610e445780601f10610e1957610100808354040283529160200191610e44565b820191906000526020600020905b815481529060010190602001808311610e2757829003601f168201915b505050505090806002018054600181600116156101000203166002900480601f016020809104026020016040519081016040528092919081815260200182805460018160011615610100020316600290048015610ee25780601f10610eb757610100808354040283529160200191610ee2565b820191906000526020600020905b815481529060010190602001808311610ec557829003601f168201915b505050505090806003018054600181600116156101000203166002900480601f016020809104026020016040519081016040528092919081815260200182805460018160011615610100020316600290048015610f805780601f10610f5557610100808354040283529160200191610f80565b820191906000526020600020905b815481529060010190602001808311610f6357829003601f168201915b505050505090806004018054600181600116156101000203166002900480601f01602080910402602001604051908101604052809291908181526020018280546001816001161561010002031660029004801561101e5780601f10610ff35761010080835404028352916020019161101e565b820191906000526020600020905b81548152906001019060200180831161100157829003601f168201915b5050505050908060050154908060060154908060070160009054906101000a900460ff16905088565b600080611053836116e9565b9050600073ffffffffffffffffffffffffffffffffffffffff166003600083815260200190815260200160002060009054906101000a900473ffffffffffffffffffffffffffffffffffffffff1673ffffffffffffffffffffffffffffffffffffffff161415156110c357600080fd5b6000600102600460003373ffffffffffffffffffffffffffffffffffffffff1673ffffffffffffffffffffffffffffffffffffffff1681526020019081526020016000205414151561111457600080fd5b336003600083815260200190815260200160002060006101000a81548173ffffffffffffffffffffffffffffffffffffffff021916908373ffffffffffffffffffffffffffffffffffffffff16021790555080600460003373ffffffffffffffffffffffffffffffffffffffff1673ffffffffffffffffffffffffffffffffffffffff168152602001908152602001600020819055506001915050919050565b6111bd89611047565b15156111c857600080fd5b6111d0611715565b610100604051908101604052808a8152602001898152602001888152602001878152602001868152602001858152602001848152602001831515815250905080600160003373ffffffffffffffffffffffffffffffffffffffff1673ffffffffffffffffffffffffffffffffffffffff168152602001908152602001600020600082015181600001908051906020019061126b92919061175d565b50602082015181600101908051906020019061128892919061175d565b5060408201518160020190805190602001906112a592919061175d565b5060608201518160030190805190602001906112c292919061175d565b5060808201518160040190805190602001906112df92919061175d565b5060a0820151816005015560c0820151816006015560e08201518160070160006101000a81548160ff0219169083151502179055509050503373ffffffffffffffffffffffffffffffffffffffff167f2d3734a8e47ac8316e500ac231c90a6e1848ca2285f40d07eaa52005e4b3a0e960405160405180910390a250505050505050505050565b60026020528160005260406000206020528060005260406000206000915091509054906101000a900460ff1681565b60006113a0826113ee565b15156113ab57600080fd5b600360006113b8846116e9565b815260200190815260200160002060009054906101000a900473ffffffffffffffffffffffffffffffffffffffff169050919050565b6000806113fa836116e9565b9050600073ffffffffffffffffffffffffffffffffffffffff166003600083815260200190815260200160002060009054906101000a900473ffffffffffffffffffffffffffffffffffffffff1673ffffffffffffffffffffffffffffffffffffffff1614806114dc575080600460006003600085815260200190815260200160002060009054906101000a900473ffffffffffffffffffffffffffffffffffffffff1673ffffffffffffffffffffffffffffffffffffffff1673ffffffffffffffffffffffffffffffffffffffff1681526020019081526020016000205414155b156114eb5760009150506114f1565b60019150505b919050565b60046020528060005260406000206000915090505481565b60036020528060005260406000206000915054906101000a900473ffffffffffffffffffffffffffffffffffffffff1681565b600061154c826116e9565b9050600073ffffffffffffffffffffffffffffffffffffffff166003600083815260200190815260200160002060009054906101000a900473ffffffffffffffffffffffffffffffffffffffff1673ffffffffffffffffffffffffffffffffffffffff16141515156115bd57600080fd5b60006003600083815260200190815260200160002060009054906101000a900473ffffffffffffffffffffffffffffffffffffffff1690506001600260003373ffffffffffffffffffffffffffffffffffffffff1673ffffffffffffffffffffffffffffffffffffffff16815260200190815260200160002060008373ffffffffffffffffffffffffffffffffffffffff1673ffffffffffffffffffffffffffffffffffffffff16815260200190815260200160002060006101000a81548160ff0219169083151502179055508073ffffffffffffffffffffffffffffffffffffffff163373ffffffffffffffffffffffffffffffffffffffff167fbb4e11496b5475aaef208dd35aed42ef617045213f264d285ca848ada6ad87ec60405160405180910390a3505050565b60006060829050600081511415611707576000600102915050611710565b60208301519150505b919050565b61010060405190810160405280606081526020016060815260200160608152602001606081526020016060815260200160008152602001600081526020016000151581525090565b828054600181600116156101000203166002900490600052602060002090601f016020900481019282601f1061179e57805160ff19168380011785556117cc565b828001600101855582156117cc579182015b828111156117cb5782518255916020019190600101906117b0565b5b5090506117d991906117dd565b5090565b6117ff91905b808211156117fb5760008160009055506001016117e3565b5090565b9056fea165627a7a72305820547dec0e0ae71ae9bee60c127b680b8a998812812db96a8d28f914c4086250d50029",
  "source": "pragma solidity ^0.5.0;\r\n\r\ncontract BlockID {\r\n\r\n  address admin;\r\n\r\n  struct Identification {\r\n    string firstName;\r\n    string middleName;\r\n    string lastName;\r\n    string nationality;\r\n    string imgHash;\r\n    uint dob;\r\n    uint ethnicity;\r\n    bool gender;\r\n  }\r\n\r\n  event Allowed(address indexed _from, address indexed _to);\r\n  event Registered(address indexed _address);\r\n\r\n  enum Ethnicity { Asian, Caucasian, Black, Latino, PacificIslander }\r\n  /* enum IDClass { NotAllowed, Basic, General, Private } */\r\n  mapping(address => Identification) public personalId;\r\n  mapping(address => mapping(address => bool)) public idAllowance;\r\n  mapping(bytes32 => address) public nameRegistry;\r\n  mapping(address => bytes32) public addressToName;\r\n\r\n  function createId(string memory _userName, string memory _firstName,\r\n    string memory _middleName, string memory _lastName,\r\n    string memory _nationality, string memory _imgHash,\r\n    uint _dob, uint _ethnicity, bool _gender) public {\r\n\r\n    require(registerName(_userName));\r\n    Identification memory id = Identification(_firstName, _middleName,\r\n       _lastName, _nationality, _imgHash, _dob, _ethnicity, _gender);\r\n    personalId[msg.sender] = id;\r\n\r\n    emit Registered(msg.sender);\r\n  }\r\n\r\n  function registerName(string memory _name) public returns(bool success) {\r\n    bytes32 name = stringToBytes32(_name);\r\n    require(nameRegistry[name] == address(0));\r\n    require(addressToName[msg.sender] == 0);\r\n    nameRegistry[name] = msg.sender;\r\n    addressToName[msg.sender] = name;\r\n    /* registeredAddress[msg.sender] = true; */\r\n    return true;\r\n  }\r\n\r\n  function returnAddress(string memory _userName) public view returns(address) {\r\n    require(validId(_userName));\r\n    return nameRegistry[stringToBytes32(_userName)];\r\n  }\r\n\r\n  function setAllow(string memory _userName) public {\r\n    bytes32 userName = stringToBytes32(_userName);\r\n    require(nameRegistry[userName] != address(0));\r\n    address allowAddress = nameRegistry[userName];\r\n    /* IDClass class = IDClass(_class); */\r\n    idAllowance[msg.sender][allowAddress] = true;\r\n    emit Allowed(msg.sender, allowAddress);\r\n  }\r\n\r\n  function requestId(address _idAddress) public view {\r\n    require(idAllowance[_idAddress][msg.sender]);\r\n  }\r\n\r\n  function validId(string memory _userName) public view returns(bool) {\r\n    bytes32 userName = stringToBytes32(_userName);\r\n    if(nameRegistry[userName] == address(0) ||\r\n    addressToName[nameRegistry[userName]] != userName) {\r\n      return false;\r\n    }\r\n\r\n    return true;\r\n  }\r\n\r\n  function stringToBytes32(string memory source) private pure returns (bytes32 result) {\r\n    bytes memory tempEmptyStringTest = bytes(source);\r\n    if (tempEmptyStringTest.length == 0) {\r\n        return 0x0;\r\n    }\r\n\r\n    assembly {\r\n      result := mload(add(source, 32))\r\n    }\r\n}\r\n\r\n}\r\n",
  "sourcePath": "C:/Users/alkim/code/block_id/contracts/BlockID.sol",
  "compiler": {
    "name": "solc",
    "version": "0.5.0+commit.1d4f565a.Emscripten.clang"
  },
  "schemaVersion": "3.0.2",
  "updatedAt": "2019-02-21T07:31:48.308Z",
  "devdoc": {
    "methods": {}
  },
  "userdoc": {
    "methods": {}
  }
}