{
  "contractName": "BlockID",
  "abi": [
    {
      "constant": true,
      "inputs": [
        {
          "name": "",
          "type": "address"
        }
      ],
      "name": "personalId",
      "outputs": [
        {
          "name": "firstName",
          "type": "string"
        },
        {
          "name": "lastName",
          "type": "string"
        },
        {
          "name": "nationality",
          "type": "string"
        },
        {
          "name": "imgHash",
          "type": "string"
        },
        {
          "name": "dob",
          "type": "string"
        },
        {
          "name": "ethnicity",
          "type": "uint256"
        },
        {
          "name": "gender",
          "type": "bool"
        }
      ],
      "payable": false,
      "stateMutability": "view",
      "type": "function",
      "signature": "0x06f50665"
    },
    {
      "constant": true,
      "inputs": [
        {
          "name": "",
          "type": "address"
        },
        {
          "name": "",
          "type": "address"
        }
      ],
      "name": "idAllowance",
      "outputs": [
        {
          "name": "",
          "type": "bool"
        }
      ],
      "payable": false,
      "stateMutability": "view",
      "type": "function",
      "signature": "0x279292a7"
    },
    {
      "constant": true,
      "inputs": [
        {
          "name": "",
          "type": "address"
        }
      ],
      "name": "addressToName",
      "outputs": [
        {
          "name": "",
          "type": "bytes32"
        }
      ],
      "payable": false,
      "stateMutability": "view",
      "type": "function",
      "signature": "0xe2a04b62"
    },
    {
      "constant": true,
      "inputs": [
        {
          "name": "",
          "type": "bytes32"
        }
      ],
      "name": "nameRegistry",
      "outputs": [
        {
          "name": "",
          "type": "address"
        }
      ],
      "payable": false,
      "stateMutability": "view",
      "type": "function",
      "signature": "0xec1d2cf0"
    },
    {
      "constant": true,
      "inputs": [
        {
          "name": "",
          "type": "address"
        }
      ],
      "name": "deposits",
      "outputs": [
        {
          "name": "",
          "type": "uint256"
        }
      ],
      "payable": false,
      "stateMutability": "view",
      "type": "function",
      "signature": "0xfc7e286d"
    },
    {
      "payable": true,
      "stateMutability": "payable",
      "type": "fallback"
    },
    {
      "anonymous": false,
      "inputs": [
        {
          "indexed": true,
          "name": "_from",
          "type": "address"
        },
        {
          "indexed": true,
          "name": "_to",
          "type": "address"
        }
      ],
      "name": "Allowed",
      "type": "event",
      "signature": "0xbb4e11496b5475aaef208dd35aed42ef617045213f264d285ca848ada6ad87ec"
    },
    {
      "anonymous": false,
      "inputs": [
        {
          "indexed": true,
          "name": "_address",
          "type": "address"
        }
      ],
      "name": "Registered",
      "type": "event",
      "signature": "0x2d3734a8e47ac8316e500ac231c90a6e1848ca2285f40d07eaa52005e4b3a0e9"
    },
    {
      "constant": false,
      "inputs": [
        {
          "name": "_userName",
          "type": "string"
        },
        {
          "name": "_firstName",
          "type": "string"
        },
        {
          "name": "_lastName",
          "type": "string"
        },
        {
          "name": "_nationality",
          "type": "string"
        },
        {
          "name": "_imgHash",
          "type": "string"
        },
        {
          "name": "_dob",
          "type": "string"
        },
        {
          "name": "_ethnicity",
          "type": "uint256"
        },
        {
          "name": "_gender",
          "type": "bool"
        }
      ],
      "name": "createId",
      "outputs": [],
      "payable": false,
      "stateMutability": "nonpayable",
      "type": "function",
      "signature": "0x3deb3e48"
    },
    {
      "constant": false,
      "inputs": [
        {
          "name": "_name",
          "type": "string"
        }
      ],
      "name": "registerName",
      "outputs": [
        {
          "name": "success",
          "type": "bool"
        }
      ],
      "payable": false,
      "stateMutability": "nonpayable",
      "type": "function",
      "signature": "0x0830602b"
    },
    {
      "constant": true,
      "inputs": [
        {
          "name": "_userName",
          "type": "string"
        }
      ],
      "name": "returnAddress",
      "outputs": [
        {
          "name": "",
          "type": "address"
        }
      ],
      "payable": false,
      "stateMutability": "view",
      "type": "function",
      "signature": "0x68b64d1f"
    },
    {
      "constant": false,
      "inputs": [
        {
          "name": "_userName",
          "type": "string"
        }
      ],
      "name": "setAllow",
      "outputs": [],
      "payable": false,
      "stateMutability": "nonpayable",
      "type": "function",
      "signature": "0xfe3137a9"
    },
    {
      "constant": true,
      "inputs": [
        {
          "name": "_idAddress",
          "type": "address"
        }
      ],
      "name": "requestId",
      "outputs": [],
      "payable": false,
      "stateMutability": "view",
      "type": "function",
      "signature": "0x03ee7a58"
    },
    {
      "constant": true,
      "inputs": [
        {
          "name": "_userName",
          "type": "string"
        }
      ],
      "name": "validId",
      "outputs": [
        {
          "name": "",
          "type": "bool"
        }
      ],
      "payable": false,
      "stateMutability": "view",
      "type": "function",
      "signature": "0xd3cded27"
    },
    {
      "constant": false,
      "inputs": [],
      "name": "deposit",
      "outputs": [],
      "payable": true,
      "stateMutability": "payable",
      "type": "function",
      "signature": "0xd0e30db0"
    },
    {
      "constant": false,
      "inputs": [
        {
          "name": "_to",
          "type": "address"
        },
        {
          "name": "_value",
          "type": "uint256"
        }
      ],
      "name": "transferFunds",
      "outputs": [],
      "payable": false,
      "stateMutability": "nonpayable",
      "type": "function",
      "signature": "0x990dc9db"
    },
    {
      "constant": false,
      "inputs": [],
      "name": "withdraw",
      "outputs": [],
      "payable": false,
      "stateMutability": "nonpayable",
      "type": "function",
      "signature": "0x3ccfd60b"
    }
  ],
  "bytecode": "0x608060405234801561001057600080fd5b50611c0a806100206000396000f3fe6080604052600436106100d0576000357c0100000000000000000000000000000000000000000000000000000000900463ffffffff16806303ee7a581461011f57806306f50665146101705780630830602b146103fc578063279292a7146104dc5780633ccfd60b146105655780633deb3e481461057c57806368b64d1f1461094e578063990dc9db14610a56578063d0e30db014610ab1578063d3cded2714610abb578063e2a04b6214610b9b578063ec1d2cf014610c00578063fc7e286d14610c7b578063fe3137a914610ce0575b34600560003373ffffffffffffffffffffffffffffffffffffffff1673ffffffffffffffffffffffffffffffffffffffff16815260200190815260200160002060008282540192505081905550005b34801561012b57600080fd5b5061016e6004803603602081101561014257600080fd5b81019080803573ffffffffffffffffffffffffffffffffffffffff169060200190929190505050610da8565b005b34801561017c57600080fd5b506101bf6004803603602081101561019357600080fd5b81019080803573ffffffffffffffffffffffffffffffffffffffff169060200190929190505050610e40565b6040518080602001806020018060200180602001806020018881526020018715151515815260200186810386528d818151815260200191508051906020019080838360005b8381101561021f578082015181840152602081019050610204565b50505050905090810190601f16801561024c5780820380516001836020036101000a031916815260200191505b5086810385528c818151815260200191508051906020019080838360005b8381101561028557808201518184015260208101905061026a565b50505050905090810190601f1680156102b25780820380516001836020036101000a031916815260200191505b5086810384528b818151815260200191508051906020019080838360005b838110156102eb5780820151818401526020810190506102d0565b50505050905090810190601f1680156103185780820380516001836020036101000a031916815260200191505b5086810383528a818151815260200191508051906020019080838360005b83811015610351578082015181840152602081019050610336565b50505050905090810190601f16801561037e5780820380516001836020036101000a031916815260200191505b50868103825289818151815260200191508051906020019080838360005b838110156103b757808201518184015260208101905061039c565b50505050905090810190601f1680156103e45780820380516001836020036101000a031916815260200191505b509c5050505050505050505050505060405180910390f35b34801561040857600080fd5b506104c26004803603602081101561041f57600080fd5b810190808035906020019064010000000081111561043c57600080fd5b82018360208201111561044e57600080fd5b8035906020019184600183028401116401000000008311171561047057600080fd5b91908080601f016020809104026020016040519081016040528093929190818152602001838380828437600081840152601f19601f820116905080830192505050505050509192919290505050611187565b604051808215151515815260200191505060405180910390f35b3480156104e857600080fd5b5061054b600480360360408110156104ff57600080fd5b81019080803573ffffffffffffffffffffffffffffffffffffffff169060200190929190803573ffffffffffffffffffffffffffffffffffffffff1690602001909291905050506112f4565b604051808215151515815260200191505060405180910390f35b34801561057157600080fd5b5061057a611323565b005b34801561058857600080fd5b5061094c60048036036101008110156105a057600080fd5b81019080803590602001906401000000008111156105bd57600080fd5b8201836020820111156105cf57600080fd5b803590602001918460018302840111640100000000831117156105f157600080fd5b91908080601f016020809104026020016040519081016040528093929190818152602001838380828437600081840152601f19601f8201169050808301925050505050505091929192908035906020019064010000000081111561065457600080fd5b82018360208201111561066657600080fd5b8035906020019184600183028401116401000000008311171561068857600080fd5b91908080601f016020809104026020016040519081016040528093929190818152602001838380828437600081840152601f19601f820116905080830192505050505050509192919290803590602001906401000000008111156106eb57600080fd5b8201836020820111156106fd57600080fd5b8035906020019184600183028401116401000000008311171561071f57600080fd5b91908080601f016020809104026020016040519081016040528093929190818152602001838380828437600081840152601f19601f8201169050808301925050505050505091929192908035906020019064010000000081111561078257600080fd5b82018360208201111561079457600080fd5b803590602001918460018302840111640100000000831117156107b657600080fd5b91908080601f016020809104026020016040519081016040528093929190818152602001838380828437600081840152601f19601f8201169050808301925050505050505091929192908035906020019064010000000081111561081957600080fd5b82018360208201111561082b57600080fd5b8035906020019184600183028401116401000000008311171561084d57600080fd5b91908080601f016020809104026020016040519081016040528093929190818152602001838380828437600081840152601f19601f820116905080830192505050505050509192919290803590602001906401000000008111156108b057600080fd5b8201836020820111156108c257600080fd5b803590602001918460018302840111640100000000831117156108e457600080fd5b91908080601f016020809104026020016040519081016040528093929190818152602001838380828437600081840152601f19601f82011690508083019250505050505050919291929080359060200190929190803515159060200190929190505050611486565b005b34801561095a57600080fd5b50610a146004803603602081101561097157600080fd5b810190808035906020019064010000000081111561098e57600080fd5b8201836020820111156109a057600080fd5b803590602001918460018302840111640100000000831117156109c257600080fd5b91908080601f016020809104026020016040519081016040528093929190818152602001838380828437600081840152601f19601f820116905080830192505050505050509192919290505050611626565b604051808273ffffffffffffffffffffffffffffffffffffffff1673ffffffffffffffffffffffffffffffffffffffff16815260200191505060405180910390f35b348015610a6257600080fd5b50610aaf60048036036040811015610a7957600080fd5b81019080803573ffffffffffffffffffffffffffffffffffffffff1690602001909291908035906020019092919050505061167f565b005b610ab961176b565b005b348015610ac757600080fd5b50610b8160048036036020811015610ade57600080fd5b8101908080359060200190640100000000811115610afb57600080fd5b820183602082011115610b0d57600080fd5b80359060200191846001830284011164010000000083111715610b2f57600080fd5b91908080601f016020809104026020016040519081016040528093929190818152602001838380828437600081840152601f19601f8201169050808301925050505050505091929192905050506117ba565b604051808215151515815260200191505060405180910390f35b348015610ba757600080fd5b50610bea60048036036020811015610bbe57600080fd5b81019080803573ffffffffffffffffffffffffffffffffffffffff1690602001909291905050506118c2565b6040518082815260200191505060405180910390f35b348015610c0c57600080fd5b50610c3960048036036020811015610c2357600080fd5b81019080803590602001909291905050506118da565b604051808273ffffffffffffffffffffffffffffffffffffffff1673ffffffffffffffffffffffffffffffffffffffff16815260200191505060405180910390f35b348015610c8757600080fd5b50610cca60048036036020811015610c9e57600080fd5b81019080803573ffffffffffffffffffffffffffffffffffffffff16906020019092919050505061190d565b6040518082815260200191505060405180910390f35b348015610cec57600080fd5b50610da660048036036020811015610d0357600080fd5b8101908080359060200190640100000000811115610d2057600080fd5b820183602082011115610d3257600080fd5b80359060200191846001830284011164010000000083111715610d5457600080fd5b91908080601f016020809104026020016040519081016040528093929190818152602001838380828437600081840152601f19601f820116905080830192505050505050509192919290505050611925565b005b600260008273ffffffffffffffffffffffffffffffffffffffff1673ffffffffffffffffffffffffffffffffffffffff16815260200190815260200160002060003373ffffffffffffffffffffffffffffffffffffffff1673ffffffffffffffffffffffffffffffffffffffff16815260200190815260200160002060009054906101000a900460ff161515610e3d57600080fd5b50565b6001602052806000526040600020600091509050806000018054600181600116156101000203166002900480601f016020809104026020016040519081016040528092919081815260200182805460018160011615610100020316600290048015610eec5780601f10610ec157610100808354040283529160200191610eec565b820191906000526020600020905b815481529060010190602001808311610ecf57829003601f168201915b505050505090806001018054600181600116156101000203166002900480601f016020809104026020016040519081016040528092919081815260200182805460018160011615610100020316600290048015610f8a5780601f10610f5f57610100808354040283529160200191610f8a565b820191906000526020600020905b815481529060010190602001808311610f6d57829003601f168201915b505050505090806002018054600181600116156101000203166002900480601f0160208091040260200160405190810160405280929190818152602001828054600181600116156101000203166002900480156110285780601f10610ffd57610100808354040283529160200191611028565b820191906000526020600020905b81548152906001019060200180831161100b57829003601f168201915b505050505090806003018054600181600116156101000203166002900480601f0160208091040260200160405190810160405280929190818152602001828054600181600116156101000203166002900480156110c65780601f1061109b576101008083540402835291602001916110c6565b820191906000526020600020905b8154815290600101906020018083116110a957829003601f168201915b505050505090806004018054600181600116156101000203166002900480601f0160208091040260200160405190810160405280929190818152602001828054600181600116156101000203166002900480156111645780601f1061113957610100808354040283529160200191611164565b820191906000526020600020905b81548152906001019060200180831161114757829003601f168201915b5050505050908060050154908060060160009054906101000a900460ff16905087565b60008061119383611acd565b9050600073ffffffffffffffffffffffffffffffffffffffff166003600083815260200190815260200160002060009054906101000a900473ffffffffffffffffffffffffffffffffffffffff1673ffffffffffffffffffffffffffffffffffffffff1614151561120357600080fd5b6000600102600460003373ffffffffffffffffffffffffffffffffffffffff1673ffffffffffffffffffffffffffffffffffffffff1681526020019081526020016000205414151561125457600080fd5b336003600083815260200190815260200160002060006101000a81548173ffffffffffffffffffffffffffffffffffffffff021916908373ffffffffffffffffffffffffffffffffffffffff16021790555080600460003373ffffffffffffffffffffffffffffffffffffffff1673ffffffffffffffffffffffffffffffffffffffff168152602001908152602001600020819055506001915050919050565b60026020528160005260406000206020528060005260406000206000915091509054906101000a900460ff1681565b6000600560003373ffffffffffffffffffffffffffffffffffffffff1673ffffffffffffffffffffffffffffffffffffffff168152602001908152602001600020541015151561137257600080fd5b3373ffffffffffffffffffffffffffffffffffffffff166108fc600560003373ffffffffffffffffffffffffffffffffffffffff1673ffffffffffffffffffffffffffffffffffffffff168152602001908152602001600020549081150290604051600060405180830381858888f193505050501580156113f7573d6000803e3d6000fd5b50600560003373ffffffffffffffffffffffffffffffffffffffff1673ffffffffffffffffffffffffffffffffffffffff16815260200190815260200160002054600560003373ffffffffffffffffffffffffffffffffffffffff1673ffffffffffffffffffffffffffffffffffffffff16815260200190815260200160002060008282540392505081905550565b61148f88611187565b151561149a57600080fd5b6114a2611af9565b60e060405190810160405280898152602001888152602001878152602001868152602001858152602001848152602001831515815250905080600160003373ffffffffffffffffffffffffffffffffffffffff1673ffffffffffffffffffffffffffffffffffffffff1681526020019081526020016000206000820151816000019080519060200190611536929190611b39565b506020820151816001019080519060200190611553929190611b39565b506040820151816002019080519060200190611570929190611b39565b50606082015181600301908051906020019061158d929190611b39565b5060808201518160040190805190602001906115aa929190611b39565b5060a0820151816005015560c08201518160060160006101000a81548160ff0219169083151502179055509050503373ffffffffffffffffffffffffffffffffffffffff167f2d3734a8e47ac8316e500ac231c90a6e1848ca2285f40d07eaa52005e4b3a0e960405160405180910390a2505050505050505050565b6000611631826117ba565b151561163c57600080fd5b6003600061164984611acd565b815260200190815260200160002060009054906101000a900473ffffffffffffffffffffffffffffffffffffffff169050919050565b80600560003373ffffffffffffffffffffffffffffffffffffffff1673ffffffffffffffffffffffffffffffffffffffff16815260200190815260200160002054101515156116cd57600080fd5b80600560008473ffffffffffffffffffffffffffffffffffffffff1673ffffffffffffffffffffffffffffffffffffffff1681526020019081526020016000206000828254019250508190555080600560003373ffffffffffffffffffffffffffffffffffffffff1673ffffffffffffffffffffffffffffffffffffffff168152602001908152602001600020600082825403925050819055505050565b34600560003373ffffffffffffffffffffffffffffffffffffffff1673ffffffffffffffffffffffffffffffffffffffff16815260200190815260200160002060008282540192505081905550565b6000806117c683611acd565b9050600073ffffffffffffffffffffffffffffffffffffffff166003600083815260200190815260200160002060009054906101000a900473ffffffffffffffffffffffffffffffffffffffff1673ffffffffffffffffffffffffffffffffffffffff1614806118a8575080600460006003600085815260200190815260200160002060009054906101000a900473ffffffffffffffffffffffffffffffffffffffff1673ffffffffffffffffffffffffffffffffffffffff1673ffffffffffffffffffffffffffffffffffffffff1681526020019081526020016000205414155b156118b75760009150506118bd565b60019150505b919050565b60046020528060005260406000206000915090505481565b60036020528060005260406000206000915054906101000a900473ffffffffffffffffffffffffffffffffffffffff1681565b60056020528060005260406000206000915090505481565b600061193082611acd565b9050600073ffffffffffffffffffffffffffffffffffffffff166003600083815260200190815260200160002060009054906101000a900473ffffffffffffffffffffffffffffffffffffffff1673ffffffffffffffffffffffffffffffffffffffff16141515156119a157600080fd5b60006003600083815260200190815260200160002060009054906101000a900473ffffffffffffffffffffffffffffffffffffffff1690506001600260003373ffffffffffffffffffffffffffffffffffffffff1673ffffffffffffffffffffffffffffffffffffffff16815260200190815260200160002060008373ffffffffffffffffffffffffffffffffffffffff1673ffffffffffffffffffffffffffffffffffffffff16815260200190815260200160002060006101000a81548160ff0219169083151502179055508073ffffffffffffffffffffffffffffffffffffffff163373ffffffffffffffffffffffffffffffffffffffff167fbb4e11496b5475aaef208dd35aed42ef617045213f264d285ca848ada6ad87ec60405160405180910390a3505050565b60006060829050600081511415611aeb576000600102915050611af4565b60208301519150505b919050565b60e0604051908101604052806060815260200160608152602001606081526020016060815260200160608152602001600081526020016000151581525090565b828054600181600116156101000203166002900490600052602060002090601f016020900481019282601f10611b7a57805160ff1916838001178555611ba8565b82800160010185558215611ba8579182015b82811115611ba7578251825591602001919060010190611b8c565b5b509050611bb59190611bb9565b5090565b611bdb91905b80821115611bd7576000816000905550600101611bbf565b5090565b9056fea165627a7a72305820418ae3d2923d35888419d2e33ac6c8ec946cb4c36fbca3b100f053741bdcf6940029",
  "source": "pragma solidity ^0.5.0;\r\n\r\ncontract BlockID {\r\n\r\n  address admin;\r\n\r\n  struct Identification {\r\n    string firstName;\r\n    string lastName;\r\n    string nationality;\r\n    string imgHash; //IPFS hash string img\r\n    string dob;\r\n    uint ethnicity;\r\n    bool gender;\r\n  }\r\n\r\n  event Allowed(address indexed _from, address indexed _to);\r\n  event Registered(address indexed _address);\r\n\r\n  enum Ethnicity { Asian, Caucasian, Black, Latino, PacificIslander }\r\n  /* enum IDClass { NotAllowed, Basic, General, Private } */\r\n  mapping(address => Identification) public personalId;\r\n  mapping(address => mapping(address => bool)) public idAllowance;\r\n  mapping(bytes32 => address) public nameRegistry;\r\n  mapping(address => bytes32) public addressToName;\r\n  mapping(address => uint) public deposits;\r\n\r\n  /* contract is payable with deposits from users */\r\n  function() external payable {\r\n    deposits[msg.sender] += msg.value;\r\n  }\r\n\r\n  function createId(string memory _userName, string memory _firstName,\r\n     string memory _lastName, string memory _nationality, string memory _imgHash,\r\n    string memory _dob, uint _ethnicity, bool _gender) public {\r\n\r\n    require(registerName(_userName));\r\n    Identification memory id = Identification(_firstName,\r\n    _lastName, _nationality, _imgHash, _dob, _ethnicity, _gender);\r\n    personalId[msg.sender] = id;\r\n\r\n    emit Registered(msg.sender);\r\n  }\r\n\r\n  function registerName(string memory _name) public returns(bool success) {\r\n    bytes32 name = stringToBytes32(_name);\r\n    require(nameRegistry[name] == address(0));\r\n    require(addressToName[msg.sender] == 0);\r\n    nameRegistry[name] = msg.sender;\r\n    addressToName[msg.sender] = name;\r\n    /* registeredAddress[msg.sender] = true; */\r\n    return true;\r\n  }\r\n\r\n  function returnAddress(string memory _userName) public view returns(address) {\r\n    require(validId(_userName));\r\n    return nameRegistry[stringToBytes32(_userName)];\r\n  }\r\n\r\n  function setAllow(string memory _userName) public {\r\n    bytes32 userName = stringToBytes32(_userName);\r\n    require(nameRegistry[userName] != address(0));\r\n    address allowAddress = nameRegistry[userName];\r\n    idAllowance[msg.sender][allowAddress] = true;\r\n    emit Allowed(msg.sender, allowAddress);\r\n  }\r\n\r\n  function requestId(address _idAddress) public view {\r\n    require(idAllowance[_idAddress][msg.sender]);\r\n  }\r\n\r\n  function validId(string memory _userName) public view returns(bool) {\r\n    bytes32 userName = stringToBytes32(_userName);\r\n    if(nameRegistry[userName] == address(0) ||\r\n    addressToName[nameRegistry[userName]] != userName) {\r\n      return false;\r\n    }\r\n\r\n    return true;\r\n  }\r\n\r\n  function deposit() external payable {\r\n    deposits[msg.sender] += msg.value;\r\n  }\r\n\r\n  function transferFunds(address _to, uint _value) public {\r\n    require(deposits[msg.sender] >= _value);\r\n    deposits[_to] += _value;\r\n    deposits[msg.sender] -= _value;\r\n  }\r\n\r\n  function withdraw() external {\r\n    require(deposits[msg.sender] >= 0);\r\n    msg.sender.transfer(deposits[msg.sender]);\r\n    deposits[msg.sender] -= deposits[msg.sender];\r\n  }\r\n\r\n  function stringToBytes32(string memory source) private pure returns (bytes32 result) {\r\n    bytes memory tempEmptyStringTest = bytes(source);\r\n    if (tempEmptyStringTest.length == 0) {\r\n        return 0x0;\r\n    }\r\n\r\n    assembly {\r\n      result := mload(add(source, 32))\r\n    }\r\n}\r\n\r\n}\r\n",
  "sourcePath": "C:/Users/alkim/code/block_id/contracts/BlockID.sol",
  "compiler": {
    "name": "solc",
    "version": "0.5.0+commit.1d4f565a.Emscripten.clang"
  },
  "schemaVersion": "3.0.2",
  "updatedAt": "2019-04-02T11:12:46.038Z",
  "devdoc": {
    "methods": {}
  },
  "userdoc": {
    "methods": {}
  }
}