{
  "contractName": "BlockID",
  "abi": [
    {
      "constant": true,
      "inputs": [
        {
          "name": "",
          "type": "address"
        }
      ],
      "name": "personalId",
      "outputs": [
        {
          "name": "firstName",
          "type": "string"
        },
        {
          "name": "middleName",
          "type": "string"
        },
        {
          "name": "lastName",
          "type": "string"
        },
        {
          "name": "nationality",
          "type": "string"
        },
        {
          "name": "imgHash",
          "type": "string"
        },
        {
          "name": "dob",
          "type": "string"
        },
        {
          "name": "ethnicity",
          "type": "uint256"
        },
        {
          "name": "gender",
          "type": "bool"
        }
      ],
      "payable": false,
      "stateMutability": "view",
      "type": "function",
      "signature": "0x06f50665"
    },
    {
      "constant": true,
      "inputs": [
        {
          "name": "",
          "type": "address"
        },
        {
          "name": "",
          "type": "address"
        }
      ],
      "name": "idAllowance",
      "outputs": [
        {
          "name": "",
          "type": "bool"
        }
      ],
      "payable": false,
      "stateMutability": "view",
      "type": "function",
      "signature": "0x279292a7"
    },
    {
      "constant": true,
      "inputs": [
        {
          "name": "",
          "type": "address"
        }
      ],
      "name": "addressToName",
      "outputs": [
        {
          "name": "",
          "type": "bytes32"
        }
      ],
      "payable": false,
      "stateMutability": "view",
      "type": "function",
      "signature": "0xe2a04b62"
    },
    {
      "constant": true,
      "inputs": [
        {
          "name": "",
          "type": "bytes32"
        }
      ],
      "name": "nameRegistry",
      "outputs": [
        {
          "name": "",
          "type": "address"
        }
      ],
      "payable": false,
      "stateMutability": "view",
      "type": "function",
      "signature": "0xec1d2cf0"
    },
    {
      "constant": true,
      "inputs": [
        {
          "name": "",
          "type": "address"
        }
      ],
      "name": "deposits",
      "outputs": [
        {
          "name": "",
          "type": "uint256"
        }
      ],
      "payable": false,
      "stateMutability": "view",
      "type": "function",
      "signature": "0xfc7e286d"
    },
    {
      "payable": true,
      "stateMutability": "payable",
      "type": "fallback"
    },
    {
      "anonymous": false,
      "inputs": [
        {
          "indexed": true,
          "name": "_from",
          "type": "address"
        },
        {
          "indexed": true,
          "name": "_to",
          "type": "address"
        }
      ],
      "name": "Allowed",
      "type": "event",
      "signature": "0xbb4e11496b5475aaef208dd35aed42ef617045213f264d285ca848ada6ad87ec"
    },
    {
      "anonymous": false,
      "inputs": [
        {
          "indexed": true,
          "name": "_address",
          "type": "address"
        }
      ],
      "name": "Registered",
      "type": "event",
      "signature": "0x2d3734a8e47ac8316e500ac231c90a6e1848ca2285f40d07eaa52005e4b3a0e9"
    },
    {
      "constant": false,
      "inputs": [
        {
          "name": "_userName",
          "type": "string"
        },
        {
          "name": "_firstName",
          "type": "string"
        },
        {
          "name": "_middleName",
          "type": "string"
        },
        {
          "name": "_lastName",
          "type": "string"
        },
        {
          "name": "_nationality",
          "type": "string"
        },
        {
          "name": "_imgHash",
          "type": "string"
        },
        {
          "name": "_dob",
          "type": "string"
        },
        {
          "name": "_ethnicity",
          "type": "uint256"
        },
        {
          "name": "_gender",
          "type": "bool"
        }
      ],
      "name": "createId",
      "outputs": [],
      "payable": false,
      "stateMutability": "nonpayable",
      "type": "function",
      "signature": "0xac7ecb4e"
    },
    {
      "constant": false,
      "inputs": [
        {
          "name": "_name",
          "type": "string"
        }
      ],
      "name": "registerName",
      "outputs": [
        {
          "name": "success",
          "type": "bool"
        }
      ],
      "payable": false,
      "stateMutability": "nonpayable",
      "type": "function",
      "signature": "0x0830602b"
    },
    {
      "constant": true,
      "inputs": [
        {
          "name": "_userName",
          "type": "string"
        }
      ],
      "name": "returnAddress",
      "outputs": [
        {
          "name": "",
          "type": "address"
        }
      ],
      "payable": false,
      "stateMutability": "view",
      "type": "function",
      "signature": "0x68b64d1f"
    },
    {
      "constant": false,
      "inputs": [
        {
          "name": "_userName",
          "type": "string"
        }
      ],
      "name": "setAllow",
      "outputs": [],
      "payable": false,
      "stateMutability": "nonpayable",
      "type": "function",
      "signature": "0xfe3137a9"
    },
    {
      "constant": true,
      "inputs": [
        {
          "name": "_idAddress",
          "type": "address"
        }
      ],
      "name": "requestId",
      "outputs": [],
      "payable": false,
      "stateMutability": "view",
      "type": "function",
      "signature": "0x03ee7a58"
    },
    {
      "constant": true,
      "inputs": [
        {
          "name": "_userName",
          "type": "string"
        }
      ],
      "name": "validId",
      "outputs": [
        {
          "name": "",
          "type": "bool"
        }
      ],
      "payable": false,
      "stateMutability": "view",
      "type": "function",
      "signature": "0xd3cded27"
    },
    {
      "constant": false,
      "inputs": [],
      "name": "deposit",
      "outputs": [],
      "payable": true,
      "stateMutability": "payable",
      "type": "function",
      "signature": "0xd0e30db0"
    },
    {
      "constant": false,
      "inputs": [
        {
          "name": "_to",
          "type": "address"
        },
        {
          "name": "_value",
          "type": "uint256"
        }
      ],
      "name": "transferFunds",
      "outputs": [],
      "payable": false,
      "stateMutability": "nonpayable",
      "type": "function",
      "signature": "0x990dc9db"
    }
  ],
  "bytecode": "0x608060405234801561001057600080fd5b50611c53806100206000396000f3fe6080604052600436106100c5576000357c0100000000000000000000000000000000000000000000000000000000900463ffffffff16806303ee7a581461011457806306f50665146101655780630830602b1461045d578063279292a71461053d57806368b64d1f146105c6578063990dc9db146106ce578063ac7ecb4e14610729578063d0e30db014610b92578063d3cded2714610b9c578063e2a04b6214610c7c578063ec1d2cf014610ce1578063fc7e286d14610d5c578063fe3137a914610dc1575b34600560003373ffffffffffffffffffffffffffffffffffffffff1673ffffffffffffffffffffffffffffffffffffffff16815260200190815260200160002060008282540192505081905550005b34801561012057600080fd5b506101636004803603602081101561013757600080fd5b81019080803573ffffffffffffffffffffffffffffffffffffffff169060200190929190505050610e89565b005b34801561017157600080fd5b506101b46004803603602081101561018857600080fd5b81019080803573ffffffffffffffffffffffffffffffffffffffff169060200190929190505050610f21565b604051808060200180602001806020018060200180602001806020018981526020018815151515815260200187810387528f818151815260200191508051906020019080838360005b838110156102185780820151818401526020810190506101fd565b50505050905090810190601f1680156102455780820380516001836020036101000a031916815260200191505b5087810386528e818151815260200191508051906020019080838360005b8381101561027e578082015181840152602081019050610263565b50505050905090810190601f1680156102ab5780820380516001836020036101000a031916815260200191505b5087810385528d818151815260200191508051906020019080838360005b838110156102e45780820151818401526020810190506102c9565b50505050905090810190601f1680156103115780820380516001836020036101000a031916815260200191505b5087810384528c818151815260200191508051906020019080838360005b8381101561034a57808201518184015260208101905061032f565b50505050905090810190601f1680156103775780820380516001836020036101000a031916815260200191505b5087810383528b818151815260200191508051906020019080838360005b838110156103b0578082015181840152602081019050610395565b50505050905090810190601f1680156103dd5780820380516001836020036101000a031916815260200191505b5087810382528a818151815260200191508051906020019080838360005b838110156104165780820151818401526020810190506103fb565b50505050905090810190601f1680156104435780820380516001836020036101000a031916815260200191505b509e50505050505050505050505050505060405180910390f35b34801561046957600080fd5b506105236004803603602081101561048057600080fd5b810190808035906020019064010000000081111561049d57600080fd5b8201836020820111156104af57600080fd5b803590602001918460018302840111640100000000831117156104d157600080fd5b91908080601f016020809104026020016040519081016040528093929190818152602001838380828437600081840152601f19601f820116905080830192505050505050509192919290505050611306565b604051808215151515815260200191505060405180910390f35b34801561054957600080fd5b506105ac6004803603604081101561056057600080fd5b81019080803573ffffffffffffffffffffffffffffffffffffffff169060200190929190803573ffffffffffffffffffffffffffffffffffffffff169060200190929190505050611473565b604051808215151515815260200191505060405180910390f35b3480156105d257600080fd5b5061068c600480360360208110156105e957600080fd5b810190808035906020019064010000000081111561060657600080fd5b82018360208201111561061857600080fd5b8035906020019184600183028401116401000000008311171561063a57600080fd5b91908080601f016020809104026020016040519081016040528093929190818152602001838380828437600081840152601f19601f8201169050808301925050505050505091929192905050506114a2565b604051808273ffffffffffffffffffffffffffffffffffffffff1673ffffffffffffffffffffffffffffffffffffffff16815260200191505060405180910390f35b3480156106da57600080fd5b50610727600480360360408110156106f157600080fd5b81019080803573ffffffffffffffffffffffffffffffffffffffff169060200190929190803590602001909291905050506114fb565b005b34801561073557600080fd5b50610b90600480360361012081101561074d57600080fd5b810190808035906020019064010000000081111561076a57600080fd5b82018360208201111561077c57600080fd5b8035906020019184600183028401116401000000008311171561079e57600080fd5b91908080601f016020809104026020016040519081016040528093929190818152602001838380828437600081840152601f19601f8201169050808301925050505050505091929192908035906020019064010000000081111561080157600080fd5b82018360208201111561081357600080fd5b8035906020019184600183028401116401000000008311171561083557600080fd5b91908080601f016020809104026020016040519081016040528093929190818152602001838380828437600081840152601f19601f8201169050808301925050505050505091929192908035906020019064010000000081111561089857600080fd5b8201836020820111156108aa57600080fd5b803590602001918460018302840111640100000000831117156108cc57600080fd5b91908080601f016020809104026020016040519081016040528093929190818152602001838380828437600081840152601f19601f8201169050808301925050505050505091929192908035906020019064010000000081111561092f57600080fd5b82018360208201111561094157600080fd5b8035906020019184600183028401116401000000008311171561096357600080fd5b91908080601f016020809104026020016040519081016040528093929190818152602001838380828437600081840152601f19601f820116905080830192505050505050509192919290803590602001906401000000008111156109c657600080fd5b8201836020820111156109d857600080fd5b803590602001918460018302840111640100000000831117156109fa57600080fd5b91908080601f016020809104026020016040519081016040528093929190818152602001838380828437600081840152601f19601f82011690508083019250505050505050919291929080359060200190640100000000811115610a5d57600080fd5b820183602082011115610a6f57600080fd5b80359060200191846001830284011164010000000083111715610a9157600080fd5b91908080601f016020809104026020016040519081016040528093929190818152602001838380828437600081840152601f19601f82011690508083019250505050505050919291929080359060200190640100000000811115610af457600080fd5b820183602082011115610b0657600080fd5b80359060200191846001830284011164010000000083111715610b2857600080fd5b91908080601f016020809104026020016040519081016040528093929190818152602001838380828437600081840152601f19601f820116905080830192505050505050509192919290803590602001909291908035151590602001909291905050506115e7565b005b610b9a6117ac565b005b348015610ba857600080fd5b50610c6260048036036020811015610bbf57600080fd5b8101908080359060200190640100000000811115610bdc57600080fd5b820183602082011115610bee57600080fd5b80359060200191846001830284011164010000000083111715610c1057600080fd5b91908080601f016020809104026020016040519081016040528093929190818152602001838380828437600081840152601f19601f8201169050808301925050505050505091929192905050506117fb565b604051808215151515815260200191505060405180910390f35b348015610c8857600080fd5b50610ccb60048036036020811015610c9f57600080fd5b81019080803573ffffffffffffffffffffffffffffffffffffffff169060200190929190505050611903565b6040518082815260200191505060405180910390f35b348015610ced57600080fd5b50610d1a60048036036020811015610d0457600080fd5b810190808035906020019092919050505061191b565b604051808273ffffffffffffffffffffffffffffffffffffffff1673ffffffffffffffffffffffffffffffffffffffff16815260200191505060405180910390f35b348015610d6857600080fd5b50610dab60048036036020811015610d7f57600080fd5b81019080803573ffffffffffffffffffffffffffffffffffffffff16906020019092919050505061194e565b6040518082815260200191505060405180910390f35b348015610dcd57600080fd5b50610e8760048036036020811015610de457600080fd5b8101908080359060200190640100000000811115610e0157600080fd5b820183602082011115610e1357600080fd5b80359060200191846001830284011164010000000083111715610e3557600080fd5b91908080601f016020809104026020016040519081016040528093929190818152602001838380828437600081840152601f19601f820116905080830192505050505050509192919290505050611966565b005b600260008273ffffffffffffffffffffffffffffffffffffffff1673ffffffffffffffffffffffffffffffffffffffff16815260200190815260200160002060003373ffffffffffffffffffffffffffffffffffffffff1673ffffffffffffffffffffffffffffffffffffffff16815260200190815260200160002060009054906101000a900460ff161515610f1e57600080fd5b50565b6001602052806000526040600020600091509050806000018054600181600116156101000203166002900480601f016020809104026020016040519081016040528092919081815260200182805460018160011615610100020316600290048015610fcd5780601f10610fa257610100808354040283529160200191610fcd565b820191906000526020600020905b815481529060010190602001808311610fb057829003601f168201915b505050505090806001018054600181600116156101000203166002900480601f01602080910402602001604051908101604052809291908181526020018280546001816001161561010002031660029004801561106b5780601f106110405761010080835404028352916020019161106b565b820191906000526020600020905b81548152906001019060200180831161104e57829003601f168201915b505050505090806002018054600181600116156101000203166002900480601f0160208091040260200160405190810160405280929190818152602001828054600181600116156101000203166002900480156111095780601f106110de57610100808354040283529160200191611109565b820191906000526020600020905b8154815290600101906020018083116110ec57829003601f168201915b505050505090806003018054600181600116156101000203166002900480601f0160208091040260200160405190810160405280929190818152602001828054600181600116156101000203166002900480156111a75780601f1061117c576101008083540402835291602001916111a7565b820191906000526020600020905b81548152906001019060200180831161118a57829003601f168201915b505050505090806004018054600181600116156101000203166002900480601f0160208091040260200160405190810160405280929190818152602001828054600181600116156101000203166002900480156112455780601f1061121a57610100808354040283529160200191611245565b820191906000526020600020905b81548152906001019060200180831161122857829003601f168201915b505050505090806005018054600181600116156101000203166002900480601f0160208091040260200160405190810160405280929190818152602001828054600181600116156101000203166002900480156112e35780601f106112b8576101008083540402835291602001916112e3565b820191906000526020600020905b8154815290600101906020018083116112c657829003601f168201915b5050505050908060060154908060070160009054906101000a900460ff16905088565b60008061131283611b0e565b9050600073ffffffffffffffffffffffffffffffffffffffff166003600083815260200190815260200160002060009054906101000a900473ffffffffffffffffffffffffffffffffffffffff1673ffffffffffffffffffffffffffffffffffffffff1614151561138257600080fd5b6000600102600460003373ffffffffffffffffffffffffffffffffffffffff1673ffffffffffffffffffffffffffffffffffffffff168152602001908152602001600020541415156113d357600080fd5b336003600083815260200190815260200160002060006101000a81548173ffffffffffffffffffffffffffffffffffffffff021916908373ffffffffffffffffffffffffffffffffffffffff16021790555080600460003373ffffffffffffffffffffffffffffffffffffffff1673ffffffffffffffffffffffffffffffffffffffff168152602001908152602001600020819055506001915050919050565b60026020528160005260406000206020528060005260406000206000915091509054906101000a900460ff1681565b60006114ad826117fb565b15156114b857600080fd5b600360006114c584611b0e565b815260200190815260200160002060009054906101000a900473ffffffffffffffffffffffffffffffffffffffff169050919050565b80600560003373ffffffffffffffffffffffffffffffffffffffff1673ffffffffffffffffffffffffffffffffffffffff168152602001908152602001600020541015151561154957600080fd5b80600560008473ffffffffffffffffffffffffffffffffffffffff1673ffffffffffffffffffffffffffffffffffffffff1681526020019081526020016000206000828254019250508190555080600560003373ffffffffffffffffffffffffffffffffffffffff1673ffffffffffffffffffffffffffffffffffffffff168152602001908152602001600020600082825403925050819055505050565b6115f089611306565b15156115fb57600080fd5b611603611b3a565b610100604051908101604052808a8152602001898152602001888152602001878152602001868152602001858152602001848152602001831515815250905080600160003373ffffffffffffffffffffffffffffffffffffffff1673ffffffffffffffffffffffffffffffffffffffff168152602001908152602001600020600082015181600001908051906020019061169e929190611b82565b5060208201518160010190805190602001906116bb929190611b82565b5060408201518160020190805190602001906116d8929190611b82565b5060608201518160030190805190602001906116f5929190611b82565b506080820151816004019080519060200190611712929190611b82565b5060a082015181600501908051906020019061172f929190611b82565b5060c0820151816006015560e08201518160070160006101000a81548160ff0219169083151502179055509050503373ffffffffffffffffffffffffffffffffffffffff167f2d3734a8e47ac8316e500ac231c90a6e1848ca2285f40d07eaa52005e4b3a0e960405160405180910390a250505050505050505050565b34600560003373ffffffffffffffffffffffffffffffffffffffff1673ffffffffffffffffffffffffffffffffffffffff16815260200190815260200160002060008282540192505081905550565b60008061180783611b0e565b9050600073ffffffffffffffffffffffffffffffffffffffff166003600083815260200190815260200160002060009054906101000a900473ffffffffffffffffffffffffffffffffffffffff1673ffffffffffffffffffffffffffffffffffffffff1614806118e9575080600460006003600085815260200190815260200160002060009054906101000a900473ffffffffffffffffffffffffffffffffffffffff1673ffffffffffffffffffffffffffffffffffffffff1673ffffffffffffffffffffffffffffffffffffffff1681526020019081526020016000205414155b156118f85760009150506118fe565b60019150505b919050565b60046020528060005260406000206000915090505481565b60036020528060005260406000206000915054906101000a900473ffffffffffffffffffffffffffffffffffffffff1681565b60056020528060005260406000206000915090505481565b600061197182611b0e565b9050600073ffffffffffffffffffffffffffffffffffffffff166003600083815260200190815260200160002060009054906101000a900473ffffffffffffffffffffffffffffffffffffffff1673ffffffffffffffffffffffffffffffffffffffff16141515156119e257600080fd5b60006003600083815260200190815260200160002060009054906101000a900473ffffffffffffffffffffffffffffffffffffffff1690506001600260003373ffffffffffffffffffffffffffffffffffffffff1673ffffffffffffffffffffffffffffffffffffffff16815260200190815260200160002060008373ffffffffffffffffffffffffffffffffffffffff1673ffffffffffffffffffffffffffffffffffffffff16815260200190815260200160002060006101000a81548160ff0219169083151502179055508073ffffffffffffffffffffffffffffffffffffffff163373ffffffffffffffffffffffffffffffffffffffff167fbb4e11496b5475aaef208dd35aed42ef617045213f264d285ca848ada6ad87ec60405160405180910390a3505050565b60006060829050600081511415611b2c576000600102915050611b35565b60208301519150505b919050565b61010060405190810160405280606081526020016060815260200160608152602001606081526020016060815260200160608152602001600081526020016000151581525090565b828054600181600116156101000203166002900490600052602060002090601f016020900481019282601f10611bc357805160ff1916838001178555611bf1565b82800160010185558215611bf1579182015b82811115611bf0578251825591602001919060010190611bd5565b5b509050611bfe9190611c02565b5090565b611c2491905b80821115611c20576000816000905550600101611c08565b5090565b9056fea165627a7a72305820e8a65443f94f5db52debc1be1c090534c2b02ee88989d7a21f805f891a0930a30029",
  "source": "pragma solidity ^0.5.0;\r\n\r\ncontract BlockID {\r\n\r\n  address admin;\r\n\r\n  struct Identification {\r\n    string firstName;\r\n    string middleName;\r\n    string lastName;\r\n    string nationality;\r\n    string imgHash; //IPFS hash string img\r\n    string dob;\r\n    uint ethnicity;\r\n    bool gender;\r\n  }\r\n\r\n  event Allowed(address indexed _from, address indexed _to);\r\n  event Registered(address indexed _address);\r\n\r\n  enum Ethnicity { Asian, Caucasian, Black, Latino, PacificIslander }\r\n  /* enum IDClass { NotAllowed, Basic, General, Private } */\r\n  mapping(address => Identification) public personalId;\r\n  mapping(address => mapping(address => bool)) public idAllowance;\r\n  mapping(bytes32 => address) public nameRegistry;\r\n  mapping(address => bytes32) public addressToName;\r\n  mapping(address => uint) public deposits;\r\n\r\n  /* contract is payable with deposits from users */\r\n  function() external payable {\r\n    deposits[msg.sender] += msg.value;\r\n  }\r\n\r\n  function createId(string memory _userName, string memory _firstName,\r\n    string memory _middleName, string memory _lastName,\r\n    string memory _nationality, string memory _imgHash,\r\n    string memory _dob, uint _ethnicity, bool _gender) public {\r\n\r\n    require(registerName(_userName));\r\n    Identification memory id = Identification(_firstName, _middleName,\r\n       _lastName, _nationality, _imgHash, _dob, _ethnicity, _gender);\r\n    personalId[msg.sender] = id;\r\n\r\n    emit Registered(msg.sender);\r\n  }\r\n\r\n  function registerName(string memory _name) public returns(bool success) {\r\n    bytes32 name = stringToBytes32(_name);\r\n    require(nameRegistry[name] == address(0));\r\n    require(addressToName[msg.sender] == 0);\r\n    nameRegistry[name] = msg.sender;\r\n    addressToName[msg.sender] = name;\r\n    /* registeredAddress[msg.sender] = true; */\r\n    return true;\r\n  }\r\n\r\n  function returnAddress(string memory _userName) public view returns(address) {\r\n    require(validId(_userName));\r\n    return nameRegistry[stringToBytes32(_userName)];\r\n  }\r\n\r\n  function setAllow(string memory _userName) public {\r\n    bytes32 userName = stringToBytes32(_userName);\r\n    require(nameRegistry[userName] != address(0));\r\n    address allowAddress = nameRegistry[userName];\r\n    /* IDClass class = IDClass(_class); */\r\n    idAllowance[msg.sender][allowAddress] = true;\r\n    emit Allowed(msg.sender, allowAddress);\r\n  }\r\n\r\n  function requestId(address _idAddress) public view {\r\n    require(idAllowance[_idAddress][msg.sender]);\r\n  }\r\n\r\n  function validId(string memory _userName) public view returns(bool) {\r\n    bytes32 userName = stringToBytes32(_userName);\r\n    if(nameRegistry[userName] == address(0) ||\r\n    addressToName[nameRegistry[userName]] != userName) {\r\n      return false;\r\n    }\r\n\r\n    return true;\r\n  }\r\n\r\n  function deposit() external payable {\r\n    deposits[msg.sender] += msg.value;\r\n  }\r\n\r\n  function transferFunds(address _to, uint _value) public {\r\n    require(deposits[msg.sender] >= _value);\r\n    deposits[_to] += _value;\r\n    deposits[msg.sender] -= _value;\r\n  }\r\n\r\n  function stringToBytes32(string memory source) private pure returns (bytes32 result) {\r\n    bytes memory tempEmptyStringTest = bytes(source);\r\n    if (tempEmptyStringTest.length == 0) {\r\n        return 0x0;\r\n    }\r\n\r\n    assembly {\r\n      result := mload(add(source, 32))\r\n    }\r\n}\r\n\r\n}\r\n",
  "sourcePath": "/mnt/c/Users/alkim/code/block_id/contracts/BlockID.sol",
  "compiler": {
    "name": "solc",
    "version": "0.5.0+commit.1d4f565a.Emscripten.clang"
  },
  "schemaVersion": "3.0.2",
  "updatedAt": "2019-03-06T05:18:57.662Z",
  "devdoc": {
    "methods": {}
  },
  "userdoc": {
    "methods": {}
  }
}