{
  "contractName": "BlockID",
  "abi": [
    {
      "constant": true,
      "inputs": [
        {
          "name": "",
          "type": "address"
        }
      ],
      "name": "personalId",
      "outputs": [
        {
          "name": "firstName",
          "type": "string"
        },
        {
          "name": "lastName",
          "type": "string"
        },
        {
          "name": "middleName",
          "type": "string"
        },
        {
          "name": "gender",
          "type": "string"
        },
        {
          "name": "nationality",
          "type": "string"
        },
        {
          "name": "citizenship",
          "type": "string"
        },
        {
          "name": "ssn",
          "type": "uint256"
        },
        {
          "name": "dob",
          "type": "uint256"
        }
      ],
      "payable": false,
      "stateMutability": "view",
      "type": "function",
      "signature": "0x06f50665"
    },
    {
      "constant": true,
      "inputs": [
        {
          "name": "",
          "type": "address"
        },
        {
          "name": "",
          "type": "address"
        }
      ],
      "name": "idAllowance",
      "outputs": [
        {
          "name": "",
          "type": "uint8"
        }
      ],
      "payable": false,
      "stateMutability": "view",
      "type": "function",
      "signature": "0x279292a7"
    },
    {
      "constant": true,
      "inputs": [
        {
          "name": "",
          "type": "bytes32"
        }
      ],
      "name": "nameRegistry",
      "outputs": [
        {
          "name": "",
          "type": "address"
        }
      ],
      "payable": false,
      "stateMutability": "view",
      "type": "function",
      "signature": "0xec1d2cf0"
    },
    {
      "anonymous": false,
      "inputs": [
        {
          "indexed": false,
          "name": "_from",
          "type": "address"
        },
        {
          "indexed": false,
          "name": "_to",
          "type": "address"
        },
        {
          "indexed": false,
          "name": "_class",
          "type": "uint8"
        }
      ],
      "name": "Allowed",
      "type": "event",
      "signature": "0x3d9f24339057a52878d5d643c085014edd0029195b04aec454507371b2ea7eb2"
    },
    {
      "constant": false,
      "inputs": [
        {
          "name": "_firstName",
          "type": "string"
        },
        {
          "name": "_gender",
          "type": "string"
        }
      ],
      "name": "createId",
      "outputs": [],
      "payable": false,
      "stateMutability": "nonpayable",
      "type": "function",
      "signature": "0x8b4eaea2"
    },
    {
      "constant": false,
      "inputs": [
        {
          "name": "_name",
          "type": "string"
        }
      ],
      "name": "registerName",
      "outputs": [
        {
          "name": "success",
          "type": "bool"
        }
      ],
      "payable": false,
      "stateMutability": "nonpayable",
      "type": "function",
      "signature": "0x0830602b"
    },
    {
      "constant": true,
      "inputs": [
        {
          "name": "_name",
          "type": "string"
        }
      ],
      "name": "returnAddress",
      "outputs": [
        {
          "name": "",
          "type": "address"
        }
      ],
      "payable": false,
      "stateMutability": "view",
      "type": "function",
      "signature": "0x68b64d1f"
    },
    {
      "constant": false,
      "inputs": [
        {
          "name": "_name",
          "type": "string"
        },
        {
          "name": "_class",
          "type": "uint256"
        }
      ],
      "name": "setAllow",
      "outputs": [],
      "payable": false,
      "stateMutability": "nonpayable",
      "type": "function",
      "signature": "0x86d00c84"
    },
    {
      "constant": false,
      "inputs": [
        {
          "name": "_idAddress",
          "type": "address"
        }
      ],
      "name": "requestId",
      "outputs": [],
      "payable": false,
      "stateMutability": "nonpayable",
      "type": "function",
      "signature": "0x03ee7a58"
    }
  ],
  "bytecode": "0x608060405234801561001057600080fd5b506113f6806100206000396000f3fe60806040526004361061008e576000357c0100000000000000000000000000000000000000000000000000000000900463ffffffff16806303ee7a581461009357806306f50665146100e45780630830602b146103d8578063279292a7146104b857806368b64d1f1461054b57806386d00c84146106535780638b4eaea214610725578063ec1d2cf014610884575b600080fd5b34801561009f57600080fd5b506100e2600480360360208110156100b657600080fd5b81019080803573ffffffffffffffffffffffffffffffffffffffff1690602001909291905050506108ff565b005b3480156100f057600080fd5b506101336004803603602081101561010757600080fd5b81019080803573ffffffffffffffffffffffffffffffffffffffff1690602001909291905050506109b1565b6040518080602001806020018060200180602001806020018060200189815260200188815260200187810387528f818151815260200191508051906020019080838360005b83811015610193578082015181840152602081019050610178565b50505050905090810190601f1680156101c05780820380516001836020036101000a031916815260200191505b5087810386528e818151815260200191508051906020019080838360005b838110156101f95780820151818401526020810190506101de565b50505050905090810190601f1680156102265780820380516001836020036101000a031916815260200191505b5087810385528d818151815260200191508051906020019080838360005b8381101561025f578082015181840152602081019050610244565b50505050905090810190601f16801561028c5780820380516001836020036101000a031916815260200191505b5087810384528c818151815260200191508051906020019080838360005b838110156102c55780820151818401526020810190506102aa565b50505050905090810190601f1680156102f25780820380516001836020036101000a031916815260200191505b5087810383528b818151815260200191508051906020019080838360005b8381101561032b578082015181840152602081019050610310565b50505050905090810190601f1680156103585780820380516001836020036101000a031916815260200191505b5087810382528a818151815260200191508051906020019080838360005b83811015610391578082015181840152602081019050610376565b50505050905090810190601f1680156103be5780820380516001836020036101000a031916815260200191505b509e50505050505050505050505050505060405180910390f35b3480156103e457600080fd5b5061049e600480360360208110156103fb57600080fd5b810190808035906020019064010000000081111561041857600080fd5b82018360208201111561042a57600080fd5b8035906020019184600183028401116401000000008311171561044c57600080fd5b91908080601f016020809104026020016040519081016040528093929190818152602001838380828437600081840152601f19601f820116905080830192505050505050509192919290505050610d89565b604051808215151515815260200191505060405180910390f35b3480156104c457600080fd5b50610527600480360360408110156104db57600080fd5b81019080803573ffffffffffffffffffffffffffffffffffffffff169060200190929190803573ffffffffffffffffffffffffffffffffffffffff169060200190929190505050610e61565b6040518082600381111561053757fe5b60ff16815260200191505060405180910390f35b34801561055757600080fd5b506106116004803603602081101561056e57600080fd5b810190808035906020019064010000000081111561058b57600080fd5b82018360208201111561059d57600080fd5b803590602001918460018302840111640100000000831117156105bf57600080fd5b91908080601f016020809104026020016040519081016040528093929190818152602001838380828437600081840152601f19601f820116905080830192505050505050509192919290505050610e90565b604051808273ffffffffffffffffffffffffffffffffffffffff1673ffffffffffffffffffffffffffffffffffffffff16815260200191505060405180910390f35b34801561065f57600080fd5b506107236004803603604081101561067657600080fd5b810190808035906020019064010000000081111561069357600080fd5b8201836020820111156106a557600080fd5b803590602001918460018302840111640100000000831117156106c757600080fd5b91908080601f016020809104026020016040519081016040528093929190818152602001838380828437600081840152601f19601f82011690508083019250505050505050919291929080359060200190929190505050610f49565b005b34801561073157600080fd5b506108826004803603604081101561074857600080fd5b810190808035906020019064010000000081111561076557600080fd5b82018360208201111561077757600080fd5b8035906020019184600183028401116401000000008311171561079957600080fd5b91908080601f016020809104026020016040519081016040528093929190818152602001838380828437600081840152601f19601f820116905080830192505050505050509192919290803590602001906401000000008111156107fc57600080fd5b82018360208201111561080e57600080fd5b8035906020019184600183028401116401000000008311171561083057600080fd5b91908080601f016020809104026020016040519081016040528093929190818152602001838380828437600081840152601f19601f8201169050808301925050505050505091929192905050506110ef565b005b34801561089057600080fd5b506108bd600480360360208110156108a757600080fd5b8101908080359060200190929190505050611280565b604051808273ffffffffffffffffffffffffffffffffffffffff1673ffffffffffffffffffffffffffffffffffffffff16815260200191505060405180910390f35b6000600381111561090c57fe5b600260008373ffffffffffffffffffffffffffffffffffffffff1673ffffffffffffffffffffffffffffffffffffffff16815260200190815260200160002060003373ffffffffffffffffffffffffffffffffffffffff1673ffffffffffffffffffffffffffffffffffffffff16815260200190815260200160002060009054906101000a900460ff1660038111156109a157fe5b141515156109ae57600080fd5b50565b6001602052806000526040600020600091509050806000018054600181600116156101000203166002900480601f016020809104026020016040519081016040528092919081815260200182805460018160011615610100020316600290048015610a5d5780601f10610a3257610100808354040283529160200191610a5d565b820191906000526020600020905b815481529060010190602001808311610a4057829003601f168201915b505050505090806001018054600181600116156101000203166002900480601f016020809104026020016040519081016040528092919081815260200182805460018160011615610100020316600290048015610afb5780601f10610ad057610100808354040283529160200191610afb565b820191906000526020600020905b815481529060010190602001808311610ade57829003601f168201915b505050505090806002018054600181600116156101000203166002900480601f016020809104026020016040519081016040528092919081815260200182805460018160011615610100020316600290048015610b995780601f10610b6e57610100808354040283529160200191610b99565b820191906000526020600020905b815481529060010190602001808311610b7c57829003601f168201915b505050505090806003018054600181600116156101000203166002900480601f016020809104026020016040519081016040528092919081815260200182805460018160011615610100020316600290048015610c375780601f10610c0c57610100808354040283529160200191610c37565b820191906000526020600020905b815481529060010190602001808311610c1a57829003601f168201915b505050505090806004018054600181600116156101000203166002900480601f016020809104026020016040519081016040528092919081815260200182805460018160011615610100020316600290048015610cd55780601f10610caa57610100808354040283529160200191610cd5565b820191906000526020600020905b815481529060010190602001808311610cb857829003601f168201915b505050505090806005018054600181600116156101000203166002900480601f016020809104026020016040519081016040528092919081815260200182805460018160011615610100020316600290048015610d735780601f10610d4857610100808354040283529160200191610d73565b820191906000526020600020905b815481529060010190602001808311610d5657829003601f168201915b5050505050908060060154908060070154905088565b600080610d95836112b3565b9050600073ffffffffffffffffffffffffffffffffffffffff166003600083815260200190815260200160002060009054906101000a900473ffffffffffffffffffffffffffffffffffffffff1673ffffffffffffffffffffffffffffffffffffffff16141515610e0557600080fd5b336003600083815260200190815260200160002060006101000a81548173ffffffffffffffffffffffffffffffffffffffff021916908373ffffffffffffffffffffffffffffffffffffffff1602179055506001915050919050565b60026020528160005260406000206020528060005260406000206000915091509054906101000a900460ff1681565b600080610e9c836112b3565b9050600073ffffffffffffffffffffffffffffffffffffffff166003600083815260200190815260200160002060009054906101000a900473ffffffffffffffffffffffffffffffffffffffff1673ffffffffffffffffffffffffffffffffffffffff1614151515610f0d57600080fd5b6003600082815260200190815260200160002060009054906101000a900473ffffffffffffffffffffffffffffffffffffffff16915050919050565b6000610f54836112b3565b905060006003600083815260200190815260200160002060009054906101000a900473ffffffffffffffffffffffffffffffffffffffff1690506000836003811115610f9c57fe5b905080600260003373ffffffffffffffffffffffffffffffffffffffff1673ffffffffffffffffffffffffffffffffffffffff16815260200190815260200160002060008473ffffffffffffffffffffffffffffffffffffffff1673ffffffffffffffffffffffffffffffffffffffff16815260200190815260200160002060006101000a81548160ff0219169083600381111561103657fe5b02179055507f3d9f24339057a52878d5d643c085014edd0029195b04aec454507371b2ea7eb2338383604051808473ffffffffffffffffffffffffffffffffffffffff1673ffffffffffffffffffffffffffffffffffffffff1681526020018373ffffffffffffffffffffffffffffffffffffffff1673ffffffffffffffffffffffffffffffffffffffff1681526020018260038111156110d357fe5b60ff168152602001935050505060405180910390a15050505050565b6110f76112df565b6101006040519081016040528084815260200160206040519081016040528060008152508152602001602060405190810160405280600081525081526020018381526020016020604051908101604052806000815250815260200160206040519081016040528060008152508152602001600081526020016000815250905080600160003373ffffffffffffffffffffffffffffffffffffffff1673ffffffffffffffffffffffffffffffffffffffff16815260200190815260200160002060008201518160000190805190602001906111d2929190611325565b5060208201518160010190805190602001906111ef929190611325565b50604082015181600201908051906020019061120c929190611325565b506060820151816003019080519060200190611229929190611325565b506080820151816004019080519060200190611246929190611325565b5060a0820151816005019080519060200190611263929190611325565b5060c0820151816006015560e08201518160070155905050505050565b60036020528060005260406000206000915054906101000a900473ffffffffffffffffffffffffffffffffffffffff1681565b600060608290506000815114156112d15760006001029150506112da565b60208301519150505b919050565b6101006040519081016040528060608152602001606081526020016060815260200160608152602001606081526020016060815260200160008152602001600081525090565b828054600181600116156101000203166002900490600052602060002090601f016020900481019282601f1061136657805160ff1916838001178555611394565b82800160010185558215611394579182015b82811115611393578251825591602001919060010190611378565b5b5090506113a191906113a5565b5090565b6113c791905b808211156113c35760008160009055506001016113ab565b5090565b9056fea165627a7a723058201561b1248b6d9a444d6d7f061654a62f2c0f99128579411d42b7fecc3927791e0029",
  "source": "pragma solidity ^0.5.0;\r\n\r\ncontract BlockID {\r\n\r\n  address admin;\r\n\r\n  struct Identification {\r\n    string firstName;\r\n    string lastName;\r\n    string middleName;\r\n    string gender;\r\n    string nationality;\r\n    string citizenship;\r\n    uint ssn;\r\n    uint dob;\r\n  }\r\n\r\n  event Allowed(address _from, address _to, IDClass _class);\r\n\r\n  enum IDClass { NotAllowed, Basic, General, Private }\r\n  mapping(address => Identification) public personalId;\r\n  mapping(address => mapping(address => IDClass)) public idAllowance;\r\n  mapping(bytes32 => address) public nameRegistry;\r\n\r\n  function createId(string memory _firstName, string memory _gender) public {\r\n    Identification memory id = Identification(_firstName,\"\",\"\", _gender, \"\",\"\", 0, 0);\r\n    personalId[msg.sender] = id;\r\n\r\n  }\r\n\r\n  function registerName(string memory _name) public returns(bool success) {\r\n    bytes32 name = stringToBytes32(_name);\r\n    require(nameRegistry[name] == address(0x0));\r\n    nameRegistry[name] = msg.sender;\r\n    /* registeredAddress[msg.sender] = true; */\r\n    return true;\r\n  }\r\n\r\n  function returnAddress(string memory _name) public view returns(address) {\r\n    bytes32 name = stringToBytes32(_name);\r\n    require(nameRegistry[name] != address(0));\r\n    return nameRegistry[name];\r\n  }\r\n\r\n  function setAllow(string memory _name, uint _class) public {\r\n    bytes32 name = stringToBytes32(_name);\r\n    address allow = nameRegistry[name];\r\n    IDClass class = IDClass(_class);\r\n    idAllowance[msg.sender][allow] = class;\r\n    emit Allowed(msg.sender, allow, class);\r\n  }\r\n\r\n  function requestId(address _idAddress) public {\r\n    require(idAllowance[_idAddress][msg.sender] != IDClass.NotAllowed);\r\n  }\r\n\r\n  function stringToBytes32(string memory source) private pure returns (bytes32 result) {\r\n    bytes memory tempEmptyStringTest = bytes(source);\r\n    if (tempEmptyStringTest.length == 0) {\r\n        return 0x0;\r\n    }\r\n\r\n    assembly {\r\n      result := mload(add(source, 32))\r\n    }\r\n}\r\n\r\n}\r\n",
  "sourcePath": "C:/Users/alkim/code/block_id/contracts/BlockID.sol",
  "compiler": {
    "name": "solc",
    "version": "0.5.0+commit.1d4f565a.Emscripten.clang"
  },
  "schemaVersion": "3.0.1",
  "updatedAt": "2019-01-30T12:37:27.744Z",
  "devdoc": {
    "methods": {}
  },
  "userdoc": {
    "methods": {}
  }
}