{
  "contractName": "BlockID",
  "abi": [
    {
      "constant": true,
      "inputs": [
        {
          "name": "",
          "type": "address"
        }
      ],
      "name": "personalId",
      "outputs": [
        {
          "name": "firstName",
          "type": "string"
        },
        {
          "name": "middleName",
          "type": "string"
        },
        {
          "name": "lastName",
          "type": "string"
        },
        {
          "name": "nationality",
          "type": "string"
        },
        {
          "name": "imgHash",
          "type": "string"
        },
        {
          "name": "dob",
          "type": "string"
        },
        {
          "name": "ethnicity",
          "type": "uint256"
        },
        {
          "name": "gender",
          "type": "bool"
        }
      ],
      "payable": false,
      "stateMutability": "view",
      "type": "function",
      "signature": "0x06f50665"
    },
    {
      "constant": true,
      "inputs": [
        {
          "name": "",
          "type": "address"
        },
        {
          "name": "",
          "type": "address"
        }
      ],
      "name": "idAllowance",
      "outputs": [
        {
          "name": "",
          "type": "bool"
        }
      ],
      "payable": false,
      "stateMutability": "view",
      "type": "function",
      "signature": "0x279292a7"
    },
    {
      "constant": true,
      "inputs": [
        {
          "name": "",
          "type": "address"
        }
      ],
      "name": "addressToName",
      "outputs": [
        {
          "name": "",
          "type": "bytes32"
        }
      ],
      "payable": false,
      "stateMutability": "view",
      "type": "function",
      "signature": "0xe2a04b62"
    },
    {
      "constant": true,
      "inputs": [
        {
          "name": "",
          "type": "bytes32"
        }
      ],
      "name": "nameRegistry",
      "outputs": [
        {
          "name": "",
          "type": "address"
        }
      ],
      "payable": false,
      "stateMutability": "view",
      "type": "function",
      "signature": "0xec1d2cf0"
    },
    {
      "constant": true,
      "inputs": [
        {
          "name": "",
          "type": "address"
        }
      ],
      "name": "deposits",
      "outputs": [
        {
          "name": "",
          "type": "uint256"
        }
      ],
      "payable": false,
      "stateMutability": "view",
      "type": "function",
      "signature": "0xfc7e286d"
    },
    {
      "payable": true,
      "stateMutability": "payable",
      "type": "fallback"
    },
    {
      "anonymous": false,
      "inputs": [
        {
          "indexed": true,
          "name": "_from",
          "type": "address"
        },
        {
          "indexed": true,
          "name": "_to",
          "type": "address"
        }
      ],
      "name": "Allowed",
      "type": "event",
      "signature": "0xbb4e11496b5475aaef208dd35aed42ef617045213f264d285ca848ada6ad87ec"
    },
    {
      "anonymous": false,
      "inputs": [
        {
          "indexed": true,
          "name": "_address",
          "type": "address"
        }
      ],
      "name": "Registered",
      "type": "event",
      "signature": "0x2d3734a8e47ac8316e500ac231c90a6e1848ca2285f40d07eaa52005e4b3a0e9"
    },
    {
      "constant": false,
      "inputs": [
        {
          "name": "_userName",
          "type": "string"
        },
        {
          "name": "_firstName",
          "type": "string"
        },
        {
          "name": "_middleName",
          "type": "string"
        },
        {
          "name": "_lastName",
          "type": "string"
        },
        {
          "name": "_nationality",
          "type": "string"
        },
        {
          "name": "_imgHash",
          "type": "string"
        },
        {
          "name": "_dob",
          "type": "string"
        },
        {
          "name": "_ethnicity",
          "type": "uint256"
        },
        {
          "name": "_gender",
          "type": "bool"
        }
      ],
      "name": "createId",
      "outputs": [],
      "payable": false,
      "stateMutability": "nonpayable",
      "type": "function",
      "signature": "0xac7ecb4e"
    },
    {
      "constant": false,
      "inputs": [
        {
          "name": "_name",
          "type": "string"
        }
      ],
      "name": "registerName",
      "outputs": [
        {
          "name": "success",
          "type": "bool"
        }
      ],
      "payable": false,
      "stateMutability": "nonpayable",
      "type": "function",
      "signature": "0x0830602b"
    },
    {
      "constant": true,
      "inputs": [
        {
          "name": "_userName",
          "type": "string"
        }
      ],
      "name": "returnAddress",
      "outputs": [
        {
          "name": "",
          "type": "address"
        }
      ],
      "payable": false,
      "stateMutability": "view",
      "type": "function",
      "signature": "0x68b64d1f"
    },
    {
      "constant": false,
      "inputs": [
        {
          "name": "_userName",
          "type": "string"
        }
      ],
      "name": "setAllow",
      "outputs": [],
      "payable": false,
      "stateMutability": "nonpayable",
      "type": "function",
      "signature": "0xfe3137a9"
    },
    {
      "constant": true,
      "inputs": [
        {
          "name": "_idAddress",
          "type": "address"
        }
      ],
      "name": "requestId",
      "outputs": [],
      "payable": false,
      "stateMutability": "view",
      "type": "function",
      "signature": "0x03ee7a58"
    },
    {
      "constant": true,
      "inputs": [
        {
          "name": "_userName",
          "type": "string"
        }
      ],
      "name": "validId",
      "outputs": [
        {
          "name": "",
          "type": "bool"
        }
      ],
      "payable": false,
      "stateMutability": "view",
      "type": "function",
      "signature": "0xd3cded27"
    },
    {
      "constant": false,
      "inputs": [],
      "name": "deposit",
      "outputs": [],
      "payable": true,
      "stateMutability": "payable",
      "type": "function",
      "signature": "0xd0e30db0"
    }
  ],
  "bytecode": "0x608060405234801561001057600080fd5b50611b01806100206000396000f3fe6080604052600436106100ba576000357c0100000000000000000000000000000000000000000000000000000000900463ffffffff16806303ee7a581461010957806306f506651461015a5780630830602b14610452578063279292a71461053257806368b64d1f146105bb578063ac7ecb4e146106c3578063d0e30db014610b2c578063d3cded2714610b36578063e2a04b6214610c16578063ec1d2cf014610c7b578063fc7e286d14610cf6578063fe3137a914610d5b575b34600560003373ffffffffffffffffffffffffffffffffffffffff1673ffffffffffffffffffffffffffffffffffffffff16815260200190815260200160002060008282540192505081905550005b34801561011557600080fd5b506101586004803603602081101561012c57600080fd5b81019080803573ffffffffffffffffffffffffffffffffffffffff169060200190929190505050610e23565b005b34801561016657600080fd5b506101a96004803603602081101561017d57600080fd5b81019080803573ffffffffffffffffffffffffffffffffffffffff169060200190929190505050610ebb565b604051808060200180602001806020018060200180602001806020018981526020018815151515815260200187810387528f818151815260200191508051906020019080838360005b8381101561020d5780820151818401526020810190506101f2565b50505050905090810190601f16801561023a5780820380516001836020036101000a031916815260200191505b5087810386528e818151815260200191508051906020019080838360005b83811015610273578082015181840152602081019050610258565b50505050905090810190601f1680156102a05780820380516001836020036101000a031916815260200191505b5087810385528d818151815260200191508051906020019080838360005b838110156102d95780820151818401526020810190506102be565b50505050905090810190601f1680156103065780820380516001836020036101000a031916815260200191505b5087810384528c818151815260200191508051906020019080838360005b8381101561033f578082015181840152602081019050610324565b50505050905090810190601f16801561036c5780820380516001836020036101000a031916815260200191505b5087810383528b818151815260200191508051906020019080838360005b838110156103a557808201518184015260208101905061038a565b50505050905090810190601f1680156103d25780820380516001836020036101000a031916815260200191505b5087810382528a818151815260200191508051906020019080838360005b8381101561040b5780820151818401526020810190506103f0565b50505050905090810190601f1680156104385780820380516001836020036101000a031916815260200191505b509e50505050505050505050505050505060405180910390f35b34801561045e57600080fd5b506105186004803603602081101561047557600080fd5b810190808035906020019064010000000081111561049257600080fd5b8201836020820111156104a457600080fd5b803590602001918460018302840111640100000000831117156104c657600080fd5b91908080601f016020809104026020016040519081016040528093929190818152602001838380828437600081840152601f19601f8201169050808301925050505050505091929192905050506112a0565b604051808215151515815260200191505060405180910390f35b34801561053e57600080fd5b506105a16004803603604081101561055557600080fd5b81019080803573ffffffffffffffffffffffffffffffffffffffff169060200190929190803573ffffffffffffffffffffffffffffffffffffffff16906020019092919050505061140d565b604051808215151515815260200191505060405180910390f35b3480156105c757600080fd5b50610681600480360360208110156105de57600080fd5b81019080803590602001906401000000008111156105fb57600080fd5b82018360208201111561060d57600080fd5b8035906020019184600183028401116401000000008311171561062f57600080fd5b91908080601f016020809104026020016040519081016040528093929190818152602001838380828437600081840152601f19601f82011690508083019250505050505050919291929050505061143c565b604051808273ffffffffffffffffffffffffffffffffffffffff1673ffffffffffffffffffffffffffffffffffffffff16815260200191505060405180910390f35b3480156106cf57600080fd5b50610b2a60048036036101208110156106e757600080fd5b810190808035906020019064010000000081111561070457600080fd5b82018360208201111561071657600080fd5b8035906020019184600183028401116401000000008311171561073857600080fd5b91908080601f016020809104026020016040519081016040528093929190818152602001838380828437600081840152601f19601f8201169050808301925050505050505091929192908035906020019064010000000081111561079b57600080fd5b8201836020820111156107ad57600080fd5b803590602001918460018302840111640100000000831117156107cf57600080fd5b91908080601f016020809104026020016040519081016040528093929190818152602001838380828437600081840152601f19601f8201169050808301925050505050505091929192908035906020019064010000000081111561083257600080fd5b82018360208201111561084457600080fd5b8035906020019184600183028401116401000000008311171561086657600080fd5b91908080601f016020809104026020016040519081016040528093929190818152602001838380828437600081840152601f19601f820116905080830192505050505050509192919290803590602001906401000000008111156108c957600080fd5b8201836020820111156108db57600080fd5b803590602001918460018302840111640100000000831117156108fd57600080fd5b91908080601f016020809104026020016040519081016040528093929190818152602001838380828437600081840152601f19601f8201169050808301925050505050505091929192908035906020019064010000000081111561096057600080fd5b82018360208201111561097257600080fd5b8035906020019184600183028401116401000000008311171561099457600080fd5b91908080601f016020809104026020016040519081016040528093929190818152602001838380828437600081840152601f19601f820116905080830192505050505050509192919290803590602001906401000000008111156109f757600080fd5b820183602082011115610a0957600080fd5b80359060200191846001830284011164010000000083111715610a2b57600080fd5b91908080601f016020809104026020016040519081016040528093929190818152602001838380828437600081840152601f19601f82011690508083019250505050505050919291929080359060200190640100000000811115610a8e57600080fd5b820183602082011115610aa057600080fd5b80359060200191846001830284011164010000000083111715610ac257600080fd5b91908080601f016020809104026020016040519081016040528093929190818152602001838380828437600081840152601f19601f82011690508083019250505050505050919291929080359060200190929190803515159060200190929190505050611495565b005b610b3461165a565b005b348015610b4257600080fd5b50610bfc60048036036020811015610b5957600080fd5b8101908080359060200190640100000000811115610b7657600080fd5b820183602082011115610b8857600080fd5b80359060200191846001830284011164010000000083111715610baa57600080fd5b91908080601f016020809104026020016040519081016040528093929190818152602001838380828437600081840152601f19601f8201169050808301925050505050505091929192905050506116a9565b604051808215151515815260200191505060405180910390f35b348015610c2257600080fd5b50610c6560048036036020811015610c3957600080fd5b81019080803573ffffffffffffffffffffffffffffffffffffffff1690602001909291905050506117b1565b6040518082815260200191505060405180910390f35b348015610c8757600080fd5b50610cb460048036036020811015610c9e57600080fd5b81019080803590602001909291905050506117c9565b604051808273ffffffffffffffffffffffffffffffffffffffff1673ffffffffffffffffffffffffffffffffffffffff16815260200191505060405180910390f35b348015610d0257600080fd5b50610d4560048036036020811015610d1957600080fd5b81019080803573ffffffffffffffffffffffffffffffffffffffff1690602001909291905050506117fc565b6040518082815260200191505060405180910390f35b348015610d6757600080fd5b50610e2160048036036020811015610d7e57600080fd5b8101908080359060200190640100000000811115610d9b57600080fd5b820183602082011115610dad57600080fd5b80359060200191846001830284011164010000000083111715610dcf57600080fd5b91908080601f016020809104026020016040519081016040528093929190818152602001838380828437600081840152601f19601f820116905080830192505050505050509192919290505050611814565b005b600260008273ffffffffffffffffffffffffffffffffffffffff1673ffffffffffffffffffffffffffffffffffffffff16815260200190815260200160002060003373ffffffffffffffffffffffffffffffffffffffff1673ffffffffffffffffffffffffffffffffffffffff16815260200190815260200160002060009054906101000a900460ff161515610eb857600080fd5b50565b6001602052806000526040600020600091509050806000018054600181600116156101000203166002900480601f016020809104026020016040519081016040528092919081815260200182805460018160011615610100020316600290048015610f675780601f10610f3c57610100808354040283529160200191610f67565b820191906000526020600020905b815481529060010190602001808311610f4a57829003601f168201915b505050505090806001018054600181600116156101000203166002900480601f0160208091040260200160405190810160405280929190818152602001828054600181600116156101000203166002900480156110055780601f10610fda57610100808354040283529160200191611005565b820191906000526020600020905b815481529060010190602001808311610fe857829003601f168201915b505050505090806002018054600181600116156101000203166002900480601f0160208091040260200160405190810160405280929190818152602001828054600181600116156101000203166002900480156110a35780601f10611078576101008083540402835291602001916110a3565b820191906000526020600020905b81548152906001019060200180831161108657829003601f168201915b505050505090806003018054600181600116156101000203166002900480601f0160208091040260200160405190810160405280929190818152602001828054600181600116156101000203166002900480156111415780601f1061111657610100808354040283529160200191611141565b820191906000526020600020905b81548152906001019060200180831161112457829003601f168201915b505050505090806004018054600181600116156101000203166002900480601f0160208091040260200160405190810160405280929190818152602001828054600181600116156101000203166002900480156111df5780601f106111b4576101008083540402835291602001916111df565b820191906000526020600020905b8154815290600101906020018083116111c257829003601f168201915b505050505090806005018054600181600116156101000203166002900480601f01602080910402602001604051908101604052809291908181526020018280546001816001161561010002031660029004801561127d5780601f106112525761010080835404028352916020019161127d565b820191906000526020600020905b81548152906001019060200180831161126057829003601f168201915b5050505050908060060154908060070160009054906101000a900460ff16905088565b6000806112ac836119bc565b9050600073ffffffffffffffffffffffffffffffffffffffff166003600083815260200190815260200160002060009054906101000a900473ffffffffffffffffffffffffffffffffffffffff1673ffffffffffffffffffffffffffffffffffffffff1614151561131c57600080fd5b6000600102600460003373ffffffffffffffffffffffffffffffffffffffff1673ffffffffffffffffffffffffffffffffffffffff1681526020019081526020016000205414151561136d57600080fd5b336003600083815260200190815260200160002060006101000a81548173ffffffffffffffffffffffffffffffffffffffff021916908373ffffffffffffffffffffffffffffffffffffffff16021790555080600460003373ffffffffffffffffffffffffffffffffffffffff1673ffffffffffffffffffffffffffffffffffffffff168152602001908152602001600020819055506001915050919050565b60026020528160005260406000206020528060005260406000206000915091509054906101000a900460ff1681565b6000611447826116a9565b151561145257600080fd5b6003600061145f846119bc565b815260200190815260200160002060009054906101000a900473ffffffffffffffffffffffffffffffffffffffff169050919050565b61149e896112a0565b15156114a957600080fd5b6114b16119e8565b610100604051908101604052808a8152602001898152602001888152602001878152602001868152602001858152602001848152602001831515815250905080600160003373ffffffffffffffffffffffffffffffffffffffff1673ffffffffffffffffffffffffffffffffffffffff168152602001908152602001600020600082015181600001908051906020019061154c929190611a30565b506020820151816001019080519060200190611569929190611a30565b506040820151816002019080519060200190611586929190611a30565b5060608201518160030190805190602001906115a3929190611a30565b5060808201518160040190805190602001906115c0929190611a30565b5060a08201518160050190805190602001906115dd929190611a30565b5060c0820151816006015560e08201518160070160006101000a81548160ff0219169083151502179055509050503373ffffffffffffffffffffffffffffffffffffffff167f2d3734a8e47ac8316e500ac231c90a6e1848ca2285f40d07eaa52005e4b3a0e960405160405180910390a250505050505050505050565b34600560003373ffffffffffffffffffffffffffffffffffffffff1673ffffffffffffffffffffffffffffffffffffffff16815260200190815260200160002060008282540192505081905550565b6000806116b5836119bc565b9050600073ffffffffffffffffffffffffffffffffffffffff166003600083815260200190815260200160002060009054906101000a900473ffffffffffffffffffffffffffffffffffffffff1673ffffffffffffffffffffffffffffffffffffffff161480611797575080600460006003600085815260200190815260200160002060009054906101000a900473ffffffffffffffffffffffffffffffffffffffff1673ffffffffffffffffffffffffffffffffffffffff1673ffffffffffffffffffffffffffffffffffffffff1681526020019081526020016000205414155b156117a65760009150506117ac565b60019150505b919050565b60046020528060005260406000206000915090505481565b60036020528060005260406000206000915054906101000a900473ffffffffffffffffffffffffffffffffffffffff1681565b60056020528060005260406000206000915090505481565b600061181f826119bc565b9050600073ffffffffffffffffffffffffffffffffffffffff166003600083815260200190815260200160002060009054906101000a900473ffffffffffffffffffffffffffffffffffffffff1673ffffffffffffffffffffffffffffffffffffffff161415151561189057600080fd5b60006003600083815260200190815260200160002060009054906101000a900473ffffffffffffffffffffffffffffffffffffffff1690506001600260003373ffffffffffffffffffffffffffffffffffffffff1673ffffffffffffffffffffffffffffffffffffffff16815260200190815260200160002060008373ffffffffffffffffffffffffffffffffffffffff1673ffffffffffffffffffffffffffffffffffffffff16815260200190815260200160002060006101000a81548160ff0219169083151502179055508073ffffffffffffffffffffffffffffffffffffffff163373ffffffffffffffffffffffffffffffffffffffff167fbb4e11496b5475aaef208dd35aed42ef617045213f264d285ca848ada6ad87ec60405160405180910390a3505050565b600060608290506000815114156119da5760006001029150506119e3565b60208301519150505b919050565b61010060405190810160405280606081526020016060815260200160608152602001606081526020016060815260200160608152602001600081526020016000151581525090565b828054600181600116156101000203166002900490600052602060002090601f016020900481019282601f10611a7157805160ff1916838001178555611a9f565b82800160010185558215611a9f579182015b82811115611a9e578251825591602001919060010190611a83565b5b509050611aac9190611ab0565b5090565b611ad291905b80821115611ace576000816000905550600101611ab6565b5090565b9056fea165627a7a72305820d6f90dee994c19e11a628d2290f1d06743664876812d3874cb2c950e4d86d34a0029",
  "source": "pragma solidity ^0.5.0;\r\n\r\ncontract BlockID {\r\n\r\n  address admin;\r\n\r\n  struct Identification {\r\n    string firstName;\r\n    string middleName;\r\n    string lastName;\r\n    string nationality;\r\n    string imgHash;\r\n    string dob;\r\n    uint ethnicity;\r\n    bool gender;\r\n  }\r\n\r\n  event Allowed(address indexed _from, address indexed _to);\r\n  event Registered(address indexed _address);\r\n\r\n  enum Ethnicity { Asian, Caucasian, Black, Latino, PacificIslander }\r\n  /* enum IDClass { NotAllowed, Basic, General, Private } */\r\n  mapping(address => Identification) public personalId;\r\n  mapping(address => mapping(address => bool)) public idAllowance;\r\n  mapping(bytes32 => address) public nameRegistry;\r\n  mapping(address => bytes32) public addressToName;\r\n  mapping(address => uint) public deposits;\r\n\r\n  /* contract is payable with deposits from users */\r\n  function() external payable {\r\n    deposits[msg.sender] += msg.value;\r\n  }\r\n\r\n  function createId(string memory _userName, string memory _firstName,\r\n    string memory _middleName, string memory _lastName,\r\n    string memory _nationality, string memory _imgHash,\r\n    string memory _dob, uint _ethnicity, bool _gender) public {\r\n\r\n    require(registerName(_userName));\r\n    Identification memory id = Identification(_firstName, _middleName,\r\n       _lastName, _nationality, _imgHash, _dob, _ethnicity, _gender);\r\n    personalId[msg.sender] = id;\r\n\r\n    emit Registered(msg.sender);\r\n  }\r\n\r\n  function registerName(string memory _name) public returns(bool success) {\r\n    bytes32 name = stringToBytes32(_name);\r\n    require(nameRegistry[name] == address(0));\r\n    require(addressToName[msg.sender] == 0);\r\n    nameRegistry[name] = msg.sender;\r\n    addressToName[msg.sender] = name;\r\n    /* registeredAddress[msg.sender] = true; */\r\n    return true;\r\n  }\r\n\r\n  function returnAddress(string memory _userName) public view returns(address) {\r\n    require(validId(_userName));\r\n    return nameRegistry[stringToBytes32(_userName)];\r\n  }\r\n\r\n  function setAllow(string memory _userName) public {\r\n    bytes32 userName = stringToBytes32(_userName);\r\n    require(nameRegistry[userName] != address(0));\r\n    address allowAddress = nameRegistry[userName];\r\n    /* IDClass class = IDClass(_class); */\r\n    idAllowance[msg.sender][allowAddress] = true;\r\n    emit Allowed(msg.sender, allowAddress);\r\n  }\r\n\r\n  function requestId(address _idAddress) public view {\r\n    require(idAllowance[_idAddress][msg.sender]);\r\n  }\r\n\r\n  function validId(string memory _userName) public view returns(bool) {\r\n    bytes32 userName = stringToBytes32(_userName);\r\n    if(nameRegistry[userName] == address(0) ||\r\n    addressToName[nameRegistry[userName]] != userName) {\r\n      return false;\r\n    }\r\n\r\n    return true;\r\n  }\r\n\r\n  function deposit() external payable {\r\n    deposits[msg.sender] += msg.value;\r\n  }\r\n\r\n  function stringToBytes32(string memory source) private pure returns (bytes32 result) {\r\n    bytes memory tempEmptyStringTest = bytes(source);\r\n    if (tempEmptyStringTest.length == 0) {\r\n        return 0x0;\r\n    }\r\n\r\n    assembly {\r\n      result := mload(add(source, 32))\r\n    }\r\n}\r\n\r\n}\r\n",
  "sourcePath": "/mnt/c/Users/alkim/code/block_id/contracts/BlockID.sol",
  "compiler": {
    "name": "solc",
    "version": "0.5.0+commit.1d4f565a.Emscripten.clang"
  },
  "schemaVersion": "3.0.2",
  "updatedAt": "2019-02-23T04:14:01.919Z",
  "devdoc": {
    "methods": {}
  },
  "userdoc": {
    "methods": {}
  }
}